:020000040800F2
:10000000601000202103000861C100086DAC0008E9
:100010005DC100088D0A0008FDE7000833030008F1
:1000200000000000000000000000000039CD0008C2
:10003000091700080000000081C8000815CE00085C
:100040003D0300083D0300083D0300083D03000890
:100050003D0300083D0300083D0300083D03000880
:100060003D0300083D0300083D0300083D03000870
:100070003D0300083D0300083D0300083D03000860
:100080003D0300083D0300083D0300083D03000850
:100090003D0300083D0300083D0300083D03000840
:1000A0000D1700083D0300083D0300082117000854
:1000B0003D0300083D0300083D0300083D03000820
:1000C0003D0300083D0300083D0300083D03000810
:1000D0003D0300088D0600083D0300083D030008AD
:1000E0003D0300083D0300083D0300083D030008F0
:1000F0003D0300083D0300083D0300083D030008E0
:100100003D03000829D000083D0300083D03000816
:100110003D0300083D0300083D0300083D030008BF
:100120003D0300083D0300083D0300083D030008AF
:100130003D0300083D0300083D0300083D0300089F
:100140003D0300083D0300083D0300083D0300088F
:100150003D0300083D0300083D0300083D0300087F
:100160000000000000000000EDDA00083D03000878
:100170003D0300083D0300083D0300083D0300085F
:100180003D0300083D0300083D0300080000000097
:10019000000000003D030008000000000000000017
:1001A00000000000000000003D0300083D030008BF
:1001B0003D0300083D0300083D0300083D0300081F
:1001C0003D0300083D03000800000000000000009F
:1001D0000000000000000000000000003D030008D7
:1001E0003D0300083D03000800000000000000007F
:1001F0003D0300083D0300083D0300080000000027
:10020000000000003D0300083D0300083D03000816
:100210003D0300083D0300083D0300083D030008BE
:100220003D03000800000000000000003D0300083E
:100230003D03000800000000000000000000000076
:100240000000000000000000000000003D03000866
:100250003D03000800F002F800F052F814A696E8FA
:10026000000CB244B344DA4501D100F049F8BAE8D1
:100270000F000FA696E83000A5EB040504EB060777
:10028000AAEB0704A7F101074FEA15154FEA34144A
:10029000A4F10104AC4201D300F032F813F0010FD5
:1002A00018BFFB1A43F0010300F001F8DBE7184721
:1002B0002451010044510100103A24BF78C878C18C
:1002C000FAD8520724BF30C830C144BF04680C605C
:1002D000704700007047000000230024002500261E
:1002E000103A28BF78C1FBD8520728BF30C148BF99
:1002F0000B6070471FB514F0CFFF1FBD10B510BDC8
:1003000000F08AF91146FFF7F5FF11F04DF900F002
:10031000A8F903B4FFF7F2FF03BC00F0AFF9000047
:100320000A4880470A480047FEE7FEE7FEE7FEE787
:10033000FEE7FEE7FEE7FEE7FEE7FEE7FEE700007A
:1003400004480549054A064B70470000F1CE0008F5
:1003500055020008600A002060100020600C002098
:10036000600C002053EA020C00F069802DE9F04B8C
:100370004FF00006002B1FBFB3FA83F503FA05F414
:1003800024FA05F65E4012BF1643B2FA82F502FA6D
:1003900005F4C5F120051EBF22FA05FC44EA0C0451
:1003A000203556EA044C4FEA144418BF641C4FF041
:1003B00000084FF00009904271EB030C39D300297B
:1003C00019BFB1FA81F701FA07F6B0FA80F700FA1F
:1003D00007F6C7F120071EBF20FA07FC46EA0C0605
:1003E0002037B6FBF4FCA7EB0507103F07F01F0B07
:1003F000CBF120062CFA06F60CFA0BFB44BFB346F1
:100400000026202FA4BF5E464FF0000B5BEA060CCF
:1004100008BF4FF0010B19EB0B0948EB0608ABFBCB
:10042000027C06FB02CC0BFB03CCC01B71EB0C0166
:10043000C1E70B46024641464846BDE8F08B13B57E
:10044000084318BF4FF0FF300146AFF30080BDE80E
:100450001C40704710B5431C02E010F8011B71B13D
:100460008107FAD14FF0013202C88C1A8C4314EA8A
:10047000C211F9D0C01A0A0603D0C01E10BDC01A9E
:1004800010BD0A0401D0801E10BD0902FCD0401E20
:1004900010BD032A40F2308010F0030C00F01580EC
:1004A00011F8013BBCF1020F624498BF11F801CB77
:1004B00000F8013B38BF11F8013BA2F1040298BFDC
:1004C00000F801CB38BF00F8013B11F0030300F046
:1004D0007180083AC0F0088051F8043B083A51F89E
:1004E00004CBA0E80810F5E7121D5CBF51F8043BEF
:1004F00040F8043BAFF30080D20724BF11F8013B62
:1005000011F801CB48BF11F8012B24BF00F8013BC3
:1005100000F801CB48BF00F8012B70474FF00002F4
:100520000429C0F0128010F0030C00F01B80CCF105
:10053000040CBCF1020F18BF00F8012BA8BF20F873
:10054000022BA1EB0C0100F00DB85FEAC17C24BFC7
:1005500000F8012B00F8012B48BF00F8012B704771
:100560004FF0000200B5134694469646203922BF4C
:10057000A0E80C50A0E80C50B1F12001BFF4F7AF97
:10058000090728BFA0E80C5048BF0CC05DF804EB79
:10059000890028BF40F8042B08BF704748BF20F8E7
:1005A000022B11F0804F18BF00F8012B70477047E5
:1005B0007047704710B5203AC0F00B80B1E8185072
:1005C000A0E81850B1E81850A0E81850203ABFF43D
:1005D000F5AF5FEA027C24BFB1E81850A0E81850DC
:1005E00044BF18C918C0BDE810405FEA827C24BF30
:1005F00051F8043B40F8043B08BF7047D20728BFBE
:1006000031F8023B48BF11F8012B28BF20F8023B0C
:1006100048BF00F8012B7047754600F02BF8AE4636
:1006200005006946534620F00700854618B020B5FE
:10063000FFF786FEBDE820404FF000064FF00007B0
:100640004FF000084FF0000BAC46ACE8C009ACE836
:10065000C009ACE8C009ACE8C00921F007018D462B
:10066000704710B50446AFF300802046BDE8104047
:10067000FFF74FBE0048704758000020014918207E
:10068000ABBEFEE7260002007047000080B540F2D6
:10069000B030C2F2000001F08BFC80BD80B582B0AA
:1006A00001900198C06D00900098806D10F0500F7F
:1006B0004BD1FFE70099886D40F400708865009881
:1006C000006800680007002821D5FFE7009800684F
:1006D0000AF06CFBD0B1FFE700980068C0688004A6
:1006E000002812D4FFE70099886D20F48070886597
:1006F0000098806DC004002806D4FFE70099886D3B
:1007000040F001008865FFE7FFE7FFE719E0009888
:100710000068C0688007002812D4FFE70099886D40
:1007200020F4807088650098806DC004002806D48D
:10073000FFE70099886D40F001008865FFE7FFE75B
:10074000FFE7009801F028FC10E00098806DC006DB
:10075000002804D5FFE7009801F026FC05E000988A
:10076000006D816E01988847FFE7FFE702B080BD0A
:1007700080B582B001900198C06D00900099886D9D
:1007800040F0400088650099C86D40F00400C865DD
:10079000009801F009FC02B080BD000080B582B075
:1007A00001900198C06D0090009801F0F9FB02B033
:1007B00080BD000080B584B00290002000900298B7
:1007C00000680AF0DBFA002872D1FFE7029800689F
:1007D00080683F21C8F2000108420ED0FFE702996D
:1007E000886D40F0100088650299C86D40F00100E6
:1007F000C86501208DF80F005EE0029800680AF0DD
:1008000043FA48F20030C4F202200AF073FA000200
:1008100000281AD5FFE740F21400C2F20000006879
:10082000800942F66351C0F23E51A0FB01108109DC
:10083000022000EB41000090FFE7009820B1FFE7A5
:10084000009801380090F8E7FFE703F03DFB0190C6
:10085000FFE7029800680068C00740BBFFE7029806
:1008600000680AF08BFA28B9FFE7029800680AF0DE
:100870000BFAFFE703F028FB0199401A032815D370
:10088000FFE7029800680068C00770B9FFE70299A7
:10089000886D40F0100088650299C86D40F0010035
:1008A000C86501208DF80F0006E0FFE7D1E7FFE7FC
:1008B00000208DF80F00FFE79DF80F0004B080BD09
:1008C00080B540F6A400C2F2000009F01DFF40F21E
:1008D000B030C2F2000040F27931C2F200010122D0
:1008E00001F0FCFF80BD000080B586B08DF81700D8
:1008F0000491002003909DF81700012804DBFFE716
:100900006FF0010003901CE09DF8170040F2904248
:10091000C2F2000201929421029110FB012000F02A
:10092000B7F8019A02999DF8170010FB012004996D
:100930000AF0EAFD20B1FFE76FF003000390FFE744
:10094000FFE7039806B080BD81B08DF8030001B0C9
:100950007047000080B582B08DF807009DF8070051
:1009600000EB400140F22450C2F2000000EB810095
:1009700002F0D2FF02B080BD80B58AB08DF82700AA
:100980008DF82610FFE740F68C40C4F20240016863
:1009900041F004010160006800F004000390039836
:1009A000FFE79DF8271045F2D220C0F6010030F88D
:1009B000110004900220069007909DF8260070B95F
:1009C000FFE7002005909DF8271040F20800C2F2D2
:1009D000000050F8210004A903F0BEF84CE000200C
:1009E000C1F2110005909DF8271040F20800C2F2F4
:1009F000000050F8210004A903F0AEF89DF827206C
:100A000002EB420140F22450C2F20000009000EBE1
:100A1000810045F2CC21C0F6010151F8221002F00C
:100A200065FF00989DF8272002EB420100EB810052
:100A300040F20401C2F2000151F82220002101918C
:100A400002F0B4FF019A9DF8273045F2D020C0F69D
:100A50000100029030F9130040F20001C2F20001DF
:100A600051F8231003F034FB02989DF8271030F959
:100A7000110003F023FBFFE700200AB080BD000057
:100A800080B50020FFF760FF80BD0000FFE7FEE7B4
:100A900080B58EB00D90FFE740F68C40C4F2024066
:100AA000016841F001010160006800F00100079059
:100AB0000798FFE7FFE740F68C40C4F20240016868
:100AC00041F001010160006800F001000690069805
:100AD000FFE7FFE740F69C40C4F20240016841F4A2
:100AE00000310160006800F4003005900598FFE7D0
:100AF000042008900220019009900B9001200A9098
:100B0000072002900C900020C4F20220039008A954
:100B1000049103F021F8019B029A039804994FF085
:100B2000080CCDF820C009930C9203F015F80EB014
:100B300080BD000083B002900191029B1A69586940
:100B40009969D3F81CC040EA0C00DB6B18431043D2
:100B500008430199086002980078800600281BD598
:100B6000FFE702994A6A8B6AC86A896B08430021C9
:100B7000CFF6F07101EB035101F07C7108436FF087
:100B80000F0101EB021101F47C7140EA01020199AD
:100B9000086810430860FFE702984168006B40F264
:100BA000FF2211400843019948600298C068B0F5DF
:100BB000806F0DD1FFE7029800788006002806D5E7
:100BC000FFE70199486840F480604860FFE70DE066
:100BD0000298C068B0F5007F06D1FFE70199486828
:100BE00040F40070486000E0FFE7FFE70298426BC6
:100BF00001994868104348600298406C70B1FFE763
:100C00000299086C4A6C896C104301F03F0140EA7C
:100C100001420199486810434860FFE70298B0F824
:100C2000680001998860029800788007002859D5EB
:100C3000FFE70298C16C0020CFF6FF7000EB014087
:100C40000021C0F2FF7100EA010201998868104397
:100C500088600298006DB0F1FF3F06DCFFE7019964
:100C6000886840F08050886005E00199886820F02D
:100C700080508860FFE70298406DB0F1FF3F06DCCE
:100C8000FFE70199886840F00050886005E001990D
:100C9000886820F000508860FFE70298806DB0F10E
:100CA000FF3F06DCFFE70199886840F080408860DC
:100CB00005E00199886820F080408860FFE702988D
:100CC000C06DB0F1FF3F06DCFFE70199886840F096
:100CD0000040886005E00199886820F00040886045
:100CE000FFE7FFE70298006E0199C8600298406E26
:100CF0000199086102980078800700286AD5FFE70B
:100D00000298006DB0F1FF3F0ADCFFE70298006D2A
:100D10004042009000986FF35F300199486106E00F
:100D20000298006D6FF35F3001994861FFE7029808
:100D3000406DB0F1FF3F0FDCFFE70298406D40428D
:100D4000009000990020C1F6FF7000EA014201996D
:100D50004869104348610BE00298416D0020C1F6DC
:100D6000FF7000EA01420199486910434861FFE7BA
:100D70000298806DB0F1FF3F09DCFFE70298806DBB
:100D800040420090BDF800000199886105E002989A
:100D9000B0F8580001998861FFE70298C06DB0F182
:100DA000FF3F0BDCFFE70298C06D40420090009AC5
:100DB0000199886940EA0240886107E00298C26DA3
:100DC0000199886940EA02408861FFE701990020A3
:100DD000C86103E0019900204861FFE702980068BC
:100DE00001990862029800788007002806D5FFE77D
:100DF0000199086A40F4E060086205E00199086A18
:100E000040F4A0600862FFE703B0704786B004902A
:100E100003910292049803990843029908434FF6FC
:100E2000FF718843019000200090049818B1FFE7FB
:100E3000049800900EE0039818B1FFE70398009023
:100E400007E0029818B1FFE70298009000E0FFE782
:100E5000FFE7FFE70198BDF80210B0EB014F03D0A8
:100E6000FFE70120059002E000200590FFE70598CC
:100E700006B0704785B00390029101920020009067
:100E8000039828B1FFE7039890F82000009012E043
:100E9000029828B1FFE7029890F82000009009E03E
:100EA000019828B1FFE7019890F82000009000E039
:100EB000FFE7FFE7FFE7029858B1FFE700980299C4
:100EC00091F82010884203D0FFE70220049011E03F
:100ED000FFE7019858B1FFE70098019991F82010B9
:100EE000884203D0FFE70320049003E0FFE70020DF
:100EF0000490FFE7049805B07047000089B00790A0
:100F000006910592002004900390029005980068D5
:100F10000190069828BBFFE7FFE7049807998968C6
:100F200088421DD2FFE7049838B9FFE707980068A8
:100F30004FF6FC71084003900EE00398029003986E
:100F40000799498800EB0140019950F821004FF6BC
:100F5000FC7108400390FFE7049801300490DCE73F
:100F600034E0FFE7049907988268002091420090DE
:100F70000AD2FFE7039806994FF6FC721140401A17
:100F800018BF01200090FFE70098C007E8B1FFE715
:100F9000049838B9FFE7079800684FF6FC710840DD
:100FA00003900EE00398029003980799498800EB9C
:100FB0000140019950F821004FF6FC710840039060
:100FC000FFE7049801300490CCE7FFE7069860B192
:100FD000FFE7039806994FF6FC721140884203D050
:100FE000FFE70120089029E0FFE704980599886051
:100FF00002980799498840EA01400599486003989A
:101000000799498840EA01400599C8600598C06879
:10101000019950F8210070B1FFE70599C868019A5D
:1010200050F822004FF6FC721040079A528840EAAE
:1010300002400861FFE700200890FFE7089809B028
:101040007047000083B0029001910092029890F8DE
:1010500020008007002811D5FFE7019830B1FFE795
:1010600001990020CFF601600860FFE7009820B1E9
:10107000FFE7009907200860FFE710E0019830B112
:10108000FFE701990020CFF601000860FFE7009814
:1010900020B1FFE7009905200860FFE7FFE703B0F4
:1010A0007047000083B002900191019890F82000F1
:1010B000029908600198006800F008000299086130
:1010C0000198006800F400200299486101980068C6
:1010D00000F00300029988610198006800F4403034
:1010E0000299C8610198006800F47C71012000EB4E
:1010F0001111029A51620199096801F07C7100EBAB
:101100001150029988620198006800F0402002990D
:10111000C8620198006842F20001C0F60041084030
:10112000029988630198006800F4C0500299C8636E
:10113000019840798007002807D5FFE702994FF40E
:10114000007048600299C86013E001980079029924
:101150004860019840794007002805D5FFE70299CB
:101160004FF48060C86003E002990020C860FFE788
:10117000FFE70198406800F40060029988600198D8
:10118000406800F44040029908640198406800F00B
:1011900040700299486401984068C0F30540029984
:1011A00088640198406800F0404002990863019803
:1011B00000890299886602980078800700280CD57B
:1011C000FFE7019880680021C0F2FF710140012013
:1011D00000EB11400299C86403E002990120C86441
:1011E000FFE70198C06802990866019800690299B2
:1011F0004866029800788007002851D5FFE70198DB
:1012000040696FF35F30ADF80200BDF8020002994B
:10121000086501984069C0F30C40ADF80200BDF8C4
:101220000200029948650198C07AC006002805D5D9
:10123000FFE70299086D40420865FFE70198C07A10
:101240008006002805D5FFE70299486D40424865B1
:10125000FFE701988069ADF80200BDF8020002992D
:1012600088650198408BADF80200BDF80200029934
:10127000C8650198C07A4006002805D5FFE70299A5
:10128000886D40428865FFE70198C07A0006002813
:1012900005D5FFE70299C86D4042C865FFE709E040
:1012A00002990020086502994865029988650299AB
:1012B000C865FFE703B0704784B003900399886B5B
:1012C000C96B084302900398016801205022C4F2C0
:1012D00002029142019000F06781FFE703980168E4
:1012E00001205022C5F202029142019000F05C817F
:1012F000FFE7039801680120D022C4F20202914264
:10130000019000F05181FFE7039801680120D0228D
:10131000C5F202029142019000F04681FFE7039876
:101320000168012040F25012C4F202029142019081
:1013300000F03A81FFE703980168012040F2501263
:10134000C5F202029142019000F02E81FFE703985E
:101350000168012040F2D012C4F2020291420190D1
:1013600000F02281FFE703980168012040F2D012CB
:10137000C5F202029142019000F01681FFE7039846
:101380000168012040F25022C4F202029142019011
:1013900000F00A81FFE703980168012040F2502223
:1013A000C5F202029142019000F0FE80FFE703982F
:1013B0000168012040F2D022C4F202029142019061
:1013C00000F0F280FFE703980168012040F2D0228C
:1013D000C5F202029142019000F0E680FFE7039817
:1013E0000168012040F25032C4F2020291420190A1
:1013F00000F0DA80FFE703980168012040F25032E4
:10140000C5F202029142019000F0CE80FFE70398FE
:101410000168012040F2D032C4F2020291420190F0
:1014200000F0C280FFE703980168012040F2D0324B
:10143000C5F202029142019000F0B680FFE70398E6
:101440000168012041F25002C4F20202914201906F
:1014500000F0AA80FFE703980168012041F25002E2
:10146000C5F202029142019000F09E80FFE70398CE
:101470000168012041F2D002C4F2020291420190BF
:1014800000F09280FFE703980168012041F2D0024A
:10149000C5F202029142019000F08680FFE70398B6
:1014A0000168012041F25012C4F2020291420190FF
:1014B0007AD0FFE703980168012041F25012C5F28B
:1014C0000202914201906FD0FFE70398016801206A
:1014D00041F2D012C4F202029142019064D0FFE7BF
:1014E00003980168012041F2D012C5F20202914234
:1014F000019059D0FFE703980168012041F2502282
:10150000C4F20202914201904ED0FFE703980168B5
:10151000012041F25022C5F202029142019043D0D3
:10152000FFE703980168012041F2D022C4F20202D1
:101530009142019038D0FFE703980168012041F201
:10154000D022C5F20202914201902DD0FFE703980C
:101550000168012041F25032C4F20202914201902E
:1015600022D0FFE703980168012041F25032C5F212
:1015700002029142019017D0FFE703980168012011
:1015800041F2D032C4F20202914201900CD0FFE746
:10159000039800684EF63041CAF6FD710844B0FA6F
:1015A00080F040090190FFE70198C00730B1FFE7E4
:1015B0000398016C029808430290FFE703980068C3
:1015C000406920F44300029908430399096848617F
:1015D000039801680020086403990A68496C516403
:1015E00003990968886403990968C86403990968BC
:1015F000086503980168012040F25032C4F20202EB
:10160000914200904ED0FFE703980168012040F21C
:101610005032C5F202029142009043D0FFE7039896
:101620000168012040F2D032C4F2020291420090DF
:1016300038D0FFE703980168012040F2D032C5F2AC
:101640000202914200902DD0FFE70398016801202B
:1016500041F25032C4F202029142009022D0FFE7E0
:1016600003980168012041F25032C5F20202914212
:10167000009017D0FFE703980168012041F2D032B3
:10168000C4F20202914200900CD0FFE70398006878
:101690004EF63041CAF6FD710844B0FA80F04009B8
:1016A0000090FFE70098C00740B1FFE7039801688A
:1016B00000204865039909688865FFE70398016879
:1016C0000020C86704B0704784B003900291019273
:1016D000009303980068806C4FF6FF718843BDF853
:1016E00000100844039909688864039801684FF45E
:1016F000FE40C860029803990968C864019803997C
:101700000968086504B070477047000080B5002084
:10171000FFF720F980BD000072B6FFE7FEE700008A
:1017200080B540F21840C2F2000001F003FF80BD16
:1017300081B0009001B0704781B0009001B0704757
:1017400081B0009001B0704781B0009001B0704747
:1017500081B0009001B0704780B5C0B020901F915B
:1017600000208DF87B001B901F98C0680021C4F2F8
:101770007F01884201D0FFE700E0FFE7FFE7209804
:1017800090F85400012804D1FFE702208DF887006B
:10179000FDE32099012081F85400FFE7FFE720983E
:1017A000006809F0FBFA002840F0DD83FFE71F988E
:1017B0000068012810D0FFE71F9800680221C0F2DE
:1017C000304188420DD1FFE71F98C0680021C4F264
:1017D0007F01884205D1FFE72098006809F062FA8E
:1017E000FFE7209800681F990A68496809F0EAFA3B
:1017F0002098006809F0D2FA1A902098006809F041
:10180000A1FA19901A98002840F0B881FFE71998BA
:10181000002840F0B381FFE71F988068B0F1004FC7
:101820000ED1FFE7209800681F990968002209F08F
:10183000F5FA209800684FF0004109F09BFB0CE09E
:10184000209800681F9A1168926809F0E7FA2098BA
:101850000068002109F08EFBFFE71F98406920997E
:101860000968C96801F01801890888401D901F980F
:10187000006904281CD0FFE7209800681F990A68B7
:1018800009691D9B09F01CFB209800681F9A1169CB
:10189000926909F047FB209800681F9A1169127F2E
:1018A000013AB2FA82F25209520609F027FB64E1CA
:1018B00020980068002109F035FA000348B9FFE7D5
:1018C00020980068002109F02DFAC0F38460189078
:1018D00018E020980068002109F024FA90FAA0F09E
:1018E0003E903E9820B9FFE720208DF8FF0005E0EC
:1018F0003E98B0FA80F08DF8FF00FFE79DF8FF00FA
:101900001890FFE7189817901F980068000330B9E7
:10191000FFE71F980068C0F38460169015E01F98D9
:10192000006890FAA0F03C903C9820B9FFE7202096
:101930008DF8F70005E03C98B0FA80F08DF8F700DC
:10194000FFE79DF8F7001690FFE717981699884271
:1019500007D1FFE7209800680022114609F0F6FA47
:10196000FFE720980068012109F0DCF9000348B97D
:10197000FFE720980068012109F0D4F9C0F38460E2
:10198000159018E020980068012109F0CBF990FA31
:10199000A0F03A903A9820B9FFE720208DF8EF00A8
:1019A00005E03A98B0FA80F08DF8EF00FFE79DF877
:1019B000EF001590FFE7159814901F98006800033A
:1019C00030B9FFE71F980068C0F38460139015E0FA
:1019D0001F98006890FAA0F03890389820B9FFE777
:1019E00020208DF8E70005E03898B0FA80F08DF8F7
:1019F000E700FFE79DF8E7001390FFE714981399BD
:101A0000884207D1FFE7209800680121002209F0F1
:101A10009DFAFFE720980068022109F083F900038E
:101A200048B9FFE720980068022109F07BF9C0F36C
:101A30008460129018E020980068022109F072F981
:101A400090FAA0F03690369820B9FFE720208DF864
:101A5000DF0005E03698B0FA80F08DF8DF00FFE790
:101A60009DF8DF001290FFE7129811901F98006810
:101A7000000330B9FFE71F980068C0F3846010903E
:101A800015E01F98006890FAA0F03490349820B9BF
:101A9000FFE720208DF8D70005E03498B0FA80F0F9
:101AA0008DF8D700FFE79DF8D7001090FFE7119859
:101AB0001099884207D1FFE7209800680221002290
:101AC00009F044FAFFE720980068032109F02AF999
:101AD000000348B9FFE720980068032109F022F9C4
:101AE000C0F384600F9018E020980068032109F08B
:101AF00019F990FAA0F03290329820B9FFE720202F
:101B00008DF8CF0005E03298B0FA80F08DF8CF0064
:101B1000FFE79DF8CF000F90FFE70F980E901F98FA
:101B20000068000330B9FFE71F980068C0F38460C5
:101B30000D9015E01F98006890FAA0F03090309852
:101B400020B9FFE720208DF8C70005E03098B0FAF3
:101B500080F08DF8C700FFE79DF8C7000D90FFE704
:101B60000E980D99884207D1FFE72098006803215D
:101B7000002209F0EBF9FFE7FFE7FFE72098006894
:101B800009F0FCF8002840F04481FFE72098006845
:101B90001F9A1168D26809F05DF91F98C06800218A
:101BA000C4F27F01884240F03381FFE7209800684B
:101BB0000C901F980068000330B9FFE71F98006879
:101BC000C0F384600B9015E01F98006890FAA0F0B5
:101BD0002E902E9820B9FFE720208DF8BF0005E059
:101BE0002E98B0FA80F08DF8BF00FFE79DF8BF0097
:101BF0000B90FFE70B98013000F01F0009287DD8FB
:101C0000FFE71F980068000330B9FFE71F980068DE
:101C1000C0F384600A9015E01F98006890FAA0F065
:101C20002C902C9820B9FFE720208DF8B70005E014
:101C30002C98B0FA80F08DF8B700FFE79DF8B70058
:101C40000A90FFE70A98013000F01F008006099013
:101C50001F980068000330B9FFE71F980068C0F3C1
:101C60008460089015E01F98006890FAA0F02A9010
:101C70002A9820B9FFE720208DF8AF0005E02A98C8
:101C8000B0FA80F08DF8AF00FFE79DF8AF00089044
:101C9000FFE709980899013101F01F0201219140E5
:101CA000084307901F980068000330B9FFE71F98AA
:101CB0000068C0F38460069015E01F98006890FAF1
:101CC000A0F02890289820B9FFE720208DF8A700E1
:101CD00005E02898B0FA80F08DF8A700FFE79DF89E
:101CE000A7000690FFE707980699013101F01F0150
:101CF00001EB410140EA0150059082E01F98006825
:101D0000000330B9FFE71F980068C0F384600490B7
:101D100015E01F98006890FAA0F02690269820B948
:101D2000FFE720208DF89F0005E02698B0FA80F0AC
:101D30008DF89F00FFE79DF89F000490FFE704984F
:101D4000013000F01F00800603901F980068000318
:101D500030B9FFE71F980068C0F38460029015E077
:101D60001F98006890FAA0F02490249820B9FFE70B
:101D700020208DF8970005E02498B0FA80F08DF8C7
:101D80009700FFE79DF897000290FFE703980299FC
:101D9000013101F01F0201219140084301901F9879
:101DA0000068000330B9FFE71F980068C0F3846043
:101DB000009015E01F98006890FAA0F022902298F9
:101DC00020B9FFE720208DF88F0005E02298B0FAB7
:101DD00080F08DF88F00FFE79DF88F000090FFE7FF
:101DE00001990098013000F01F0000EB4002002034
:101DF000CFF6206000EB0250084340F000700590E1
:101E0000FFE70C9805991F9A926809F007F8FFE719
:101E1000FFE71F98408848F20801084200F0A280BE
:101E2000FFE748F20030C4F2022008F063FF1C9084
:101E30001F9800680021CCF22131884233D1FFE79E
:101E40009DF87200000600282DD4FFE72098006856
:101E500048F20001C4F20221884223D1FFE71C9816
:101E600040F4000148F20030C4F2022009F01AF8F0
:101E700040F21400C2F200000068800942F663518B
:101E8000C0F23E51A0FB01108109022000EB41008D
:101E90001B90FFE71B9820B1FFE71B9801381B90B0
:101EA000F8E7FFE75DE01F9800680021C4F22931E0
:101EB000884219D1FFE79DF87300C007A0B9FFE77A
:101EC0002098006848F20011C4F2022188420AD129
:101ED000FFE71C9840F0807148F20030C4F2022005
:101EE00008F0E0FFFFE73BE01F9800680021CCF21C
:101EF000527188421AD1FFE79DF87200400600280F
:101F000014D4FFE72098006848F20001C4F20221CF
:101F100088420AD1FFE71C9840F4800148F2003063
:101F2000C4F2022008F0BEFFFFE718E01F98006827
:101F30000021C4F25A7188420FD1FFE7209800684F
:101F400048F20001C4F20221884205D0FFE7209840
:101F5000006808F0B3FEFFE700E0FFE7FFE7FFE7F8
:101F6000FFE7FFE708E02099886D40F020008865D2
:101F700001208DF87B00FFE7FFE72099002081F822
:101F80005400FFE79DF87B008DF88700FFE79DF880
:101F9000870040B080BD000081B0009001B0704764
:101FA00081B0009001B0704781B0009001B07047DF
:101FB00080B58EB00D9000200C900D9800680068E0
:101FC0000B900D98006840680A9048F20030C4F207
:101FD000022008F09FFE05909DF82C008007002845
:101FE0001AD5FFE79DF828008007002814D5FFE7E1
:101FF0000D98806DC006002806D4FFE70D99886D06
:1020000040F400608865FFE70D98FFF791FB0D989D
:10201000016802200860FFE79DF82C0040070028B7
:1020200006D5FFE70A9800F0040004280ED0FFE769
:102030009DF82C000007002840F19F80FFE79DF8E5
:1020400028000007002840F19880FFE70D98806D78
:10205000C006002806D4FFE70D99886D40F4007093
:102060008865FFE70D98006808F0A0FE00287CD086
:10207000FFE70D98006848F20011C4F2022188427F
:1020800006D1FFE748F20000C4F20220049003E00A
:102090000D9800680490FFE704980D99096888423C
:1020A0000BD0FFE7059840B1FFE70598052804D05D
:1020B000FFE70598092805D1FFE70D980068C0687B
:1020C000079018E00D98006848F20011C4F2022150
:1020D000884206D1FFE748F20000C4F202200390D4
:1020E00003E00D9800680390FFE7039806900698B8
:1020F000C0680790FFE7079800F40050B0F5005F54
:1021000032D0FFE70D9800680068000700282AD544
:10211000FFE70D98006808F041FEC0B9FFE70D9891
:102120000168486820F00C0048600D99886D20F423
:10213000807088650D98806DC004002806D4FFE784
:102140000D99886D40F001008865FFE70AE00D9960
:10215000886D40F0100088650D99C86D40F0010051
:10216000C865FFE7FFE7FFE7FFE70D98FFF714FFFC
:102170000D9801680C200860FFE79DF82C00800690
:10218000002806D5FFE70A9800F0200020280ED08E
:10219000FFE79DF82C004006002840F1B680FFE7DD
:1021A0009DF828004006002840F1AF80FFE70D9819
:1021B000806DC006002806D4FFE70D99886D40F4B5
:1021C00000508865FFE70D98006808F0C3FD09908E
:1021D0000D98006808F0EAFD08900D98006848F234
:1021E0000011C4F20221884206D1FFE748F2000044
:1021F000C4F20220029003E00D9800680290FFE70D
:1022000002980D99096888420BD0FFE7059840B104
:10221000FFE70598062804D0FFE70598072805D1B1
:10222000FFE70D980068C068079018E00D980068F7
:1022300048F20011C4F20221884206D1FFE748F2B9
:102240000000C4F20220019003E00D9800680190A4
:10225000FFE7019806900698C0680790FFE7099885
:1022600000284AD0FFE79DF81F00800700280AD504
:10227000FFE7089800283FD0FFE79DF81D00800683
:10228000002839D4FFE70D98006800684006002850
:1022900031D5FFE79DF81E00800600282AD4FFE70D
:1022A0000D98006808F04EFDC0B9FFE70D98016871
:1022B000486820F0600048600D99886D20F48050D7
:1022C00088650D98806DC005002806D4FFE70D993C
:1022D000886D40F001008865FFE70AE00D99886D80
:1022E00040F0100088650D99C86D40F00100C86588
:1022F000FFE7FFE7FFE7FFE7FFE70D98FFF71CFAAF
:102300000D98016860200860FFE79DF82C0000062A
:10231000002813D5FFE79DF82800000600280DD5FA
:10232000FFE70D99886D40F4803088650D9800F0C6
:10233000FFF90D98016880200860FFE79DF82D00E7
:10234000C00798B1FFE79DF82900C00770B1FFE70B
:102350000D99886D40F4003088650D98FFF7F4F909
:102360000D9801684FF480700860FFE79DF82D001C
:102370008007002814D5FFE79DF829008007002872
:102380000ED5FFE70D99886D40F4802088650D9883
:10239000FFF7DEF90D9801684FF400700860FFE761
:1023A0009DF82C00C00600283ED5FFE79DF82800C8
:1023B000C006002838D5FFE70D98806B18B9FFE7F5
:1023C00001200C9019E0059860B1FFE748F2003059
:1023D000C4F2022008F096FC18B1FFE701200C902F
:1023E000FFE709E00D980068C068C00718B1FFE773
:1023F00001200C90FFE7FFE7FFE70C9801280ED1C2
:10240000FFE70D99886D40F4806088650D99C86D6F
:1024100040F00200C8650D98FFF7C6FDFFE70D9874
:10242000016810200860FFE79DF82D004007002894
:1024300019D5FFE79DF829004007002813D5FFE7CD
:102440000D99886D40F4804088650D99C86D40F005
:102450000800C8650D9801684FF4806008600D9809
:10246000FFF76EF9FFE70EB080BD000080B588B0C1
:10247000069000208DF817000190069820B9FFE71C
:1024800001208DF81F004FE10698006940B1FFE779
:10249000069890F82000012801D1FFE7FFE7FFE749
:1024A0000698806D50B9FFE7069800F045F9069947
:1024B0000020C865069981F85400FFE70698006877
:1024C00008F054FC28B1FFE70698006808F0D0FB3C
:1024D000FFE70698006808F059FCF0B9FFE7069896
:1024E000006808F0F7FB40F21400C2F20000006838
:1024F000800942F66351C0F23E51A0FB01108109F0
:10250000022000EB41000190FFE7019820B1FFE7B6
:10251000019801380190F8E7FFE70698006808F095
:1025200035FC70B9FFE70699886D40F010008865AA
:102530000699C86D40F00100C86501208DF81700AC
:10254000FFE70698006808F029FC03900698806D64
:10255000C006002800F1DA80FFE70398002840F069
:10256000D580FFE70698806D40F0020020F480706F
:10257000069988650698006808F000FCE0B9FFE756
:1025800048F20000C4F2022008F0F8FB009048F284
:102590000010C4F2022008F0F1FB01460098084345
:1025A00048B9FFE70698416848F20030C4F20220BB
:1025B00008F06AFCFFE7FFE706994A7E886B40EA6D
:1025C00042308A68CB681843104391F8201040EAE3
:1025D00001400490069890F8200001280BD1FFE7F5
:1025E0000698416A0020CFF6FE7000EB4141049846
:1025F00008430490FFE70698806A50B1FFE7069908
:10260000886AC96A00F4787001430498084304900A
:10261000FFE706980068C06844F20701CFF6F07142
:1026200008400499084306990968C860069800683C
:10263000006920F04060069A1168126B104308612F
:102640000698006808F07EFB02900398E8BBFFE75D
:102650000298D0BBFFE70699087E91F834108003FA
:1026600040EA4100049006980068C06844F2020104
:1026700088430499084306990968C860069890F849
:102680003C00012819D1FFE706980068006940F274
:10269000FD7120EA0102069B1968186CD3F844E02A
:1026A000D3F848C040EA0E0040EA0C00DB6C184347
:1026B000104340F00100086106E0069801680869CF
:1026C00020F001000861FFE7FFE706980069012894
:1026D0000CD1FFE706980068006B20F00F00069A07
:1026E0001168D269013A1043086306E00698016850
:1026F000086B20F00F000863FFE70698806D40F03C
:10270000010020F002000699886508E00699886DAE
:1027100040F01000886501208DF81700FFE79DF854
:1027200017008DF81F00FFE79DF81F0008B080BD5F
:1027300081B0009001B0704780B5DCB05B900020A4
:102740005A90599058905790569006A8D021FDF76E
:1027500007FF5B98006848F20001C4F2022188423A
:1027600040F0BA80FFE7002007904FF40011069177
:102770002E9006A804F066FC18B1FFE7FEF7CCFF28
:10278000FFE7FFE740F68C40C4F20240016841F4E5
:1027900080610160006800F4806005900598FFE7A3
:1027A000FFE740F68C40C4F20240016841F00101AD
:1027B0000160006800F0010004900498FFE7012028
:1027C00002905690032057900020039058900020CC
:1027D000C4F2022056A901F0BFF902990398212200
:1027E0003B923C903D903E903F9040904190429073
:1027F000449145914690479048904C9049904A901A
:1028000040F2F801C2F200013BA800F0A5F918B1AE
:10281000FFE7FEF781FFFFE740F2C800C2F20000C9
:1028200040F2F802C2F20002002100F09FFB18B152
:10283000FFE7FEF771FFFFE740F2C800C2F20000B9
:1028400000F034FD18B1FFE7FEF766FFFFE740F246
:102850001840C2F200005021C4F2020101600021C0
:102860008163C163016441648121816400F0BCF92A
:1028700018B1FFE7FEF750FFFFE740F21840C2F241
:10288000000040F2C801C2F2000100F03DFC18B1A6
:10289000FFE7FEF741FFFFE7FFE75B9840F21841D3
:1028A000C2F2000101655B98C865FFE740F218407D
:1028B000C2F20000102100F003FE18B1FFE7FEF79E
:1028C0002BFFFFE7252001900022114601F000FCBC
:1028D000019801F0F3FBFFE75CB080BD80B5A4B0C8
:1028E00022902191209248F20030C4F2022008F098
:1028F00011FA1E902298006808F050FA002840F063
:102900001E81FFE7FFE7229890F85400012804D1C8
:10291000FFE702208DF88F001AE12299012081F84B
:102920005400FFE7FFE71E9848B1FFE71E9805280F
:1029300005D0FFE71E98092840F0F680FFE72298AF
:10294000FDF738FF8DF87F009DF87F00002840F0EC
:10295000E380FFE72298806D40F4807040F60161CB
:102960008843229988652298006848F20011C4F2D1
:102970000221884206D1FFE748F20000C4F202209B
:10298000019003E0229800680190FFE701982299E6
:102990000968884203D0FFE71E9830B9FFE7229903
:1029A000886D20F480108865FFE72298806DC00450
:1029B000002806D5FFE72299C86D20F00600C865FB
:1029C00003E022990020C865FFE72298016D40F2DC
:1029D0009D60C0F6000008662298016D40F29D706F
:1029E000C0F6000048662298016D40F27170C0F692
:1029F00000008866229801681C200860FFE7229981
:102A0000002081F85400FFE722980168486840F0F0
:102A10001000486022980168C86840F00100C86052
:102A20002298006D90F85000000600284CD5FFE772
:102A30002298006D406F002841D0FFE72298006D7A
:102A4000406F0068D8B3FFE72298006D406F0168BF
:102A500002A800F0AFF820B1FFE701208DF88F0049
:102A600076E00898022804D1FFE7209880001D90A6
:102A70000BE00898012804D1FFE7209840001D9042
:102A800002E020981D90FFE7FFE71D982299096D4D
:102A9000496F0968886022990868096D4030496F5C
:102AA0000968C86021982299096D496F0968086111
:102AB0002298006D00F060FC8DF87F0003E001209B
:102AC0008DF88F0044E022E02298006D8069022892
:102AD00004D1FFE7209880001D900DE02298006D42
:102AE0008069012804D1FFE7209840001D9002E092
:102AF00020981D90FFE7FFE722980168006D4031A4
:102B0000219A1D9B00F080FE8DF87F00FFE7229840
:102B1000006808F075F906E0FFE72299002081F8C7
:102B20005400FFE7FFE709E001208DF87F00FFE791
:102B30002299002081F85400FFE7FFE703E002201C
:102B40008DF87F00FFE79DF87F008DF88F00FFE78D
:102B50009DF88F0024B080BD80B584B002900191B3
:102B6000029818B1FFE7019820B9FFE701208DF81E
:102B70000F001AE0029800788006002801D5FFE7D0
:102B8000FFE70298406C08B1FFE7FFE70298007882
:102B90008007002801D5FFE7FFE702980199FDF7BC
:102BA000C9FF00208DF80F00FFE79DF80F0004B06B
:102BB00080BD000080B584B002900191029818B1E8
:102BC000FFE7019820B9FFE701208DF80F0007E02B
:102BD00002980199FEF766FA00208DF80F00FFE7D2
:102BE0009DF80F0004B080BD80B584B0029001F064
:102BF0006BF90190029820B9FFE701208DF80F00D2
:102C0000AFE10298016801205022C4F20202914211
:102C1000009000F06781FFE70298016801205022D0
:102C2000C5F202029142009000F05C81FFE7029839
:102C300001680120D022C4F202029142009000F00B
:102C40005181FFE7029801680120D022C5F20202FB
:102C50009142009000F04681FFE702980168012050
:102C600040F25012C4F202029142009000F03A8108
:102C7000FFE702980168012040F25012C5F20202FB
:102C80009142009000F02E81FFE702980168012038
:102C900040F2D012C4F202029142009000F0228170
:102CA000FFE702980168012040F2D012C5F202024B
:102CB0009142009000F01681FFE702980168012020
:102CC00040F25022C4F202029142009000F00A81C8
:102CD000FFE702980168012040F25022C5F202028B
:102CE0009142009000F0FE80FFE702980168012009
:102CF00040F2D022C4F202029142009000F0F28031
:102D0000FFE702980168012040F2D022C5F20202DA
:102D10009142009000F0E680FFE7029801680120F0
:102D200040F25032C4F202029142009000F0DA8088
:102D3000FFE702980168012040F25032C5F202021A
:102D40009142009000F0CE80FFE7029801680120D8
:102D500040F2D032C4F202029142009000F0C280F0
:102D6000FFE702980168012040F2D032C5F202026A
:102D70009142009000F0B680FFE7029801680120C0
:102D800041F25002C4F202029142009000F0AA8087
:102D9000FFE702980168012041F25002C5F20202E9
:102DA0009142009000F09E80FFE7029801680120A8
:102DB00041F2D002C4F202029142009000F09280EF
:102DC000FFE702980168012041F2D002C5F2020239
:102DD0009142009000F08680FFE702980168012090
:102DE00041F25012C4F20202914200907AD0FFE701
:102DF00002980168012041F25012C5F2020291428C
:102E000000906FD0FFE702980168012041F2D012D4
:102E1000C4F202029142009064D0FFE70298016878
:102E2000012041F2D012C5F202029142009059D025
:102E3000FFE702980168012041F25022C4F2020229
:102E4000914200904ED0FFE702980168012041F2C4
:102E50005022C5F202029142009043D0FFE702984F
:102E60000168012041F2D022C4F202029142009096
:102E700038D0FFE702980168012041F2D022C5F264
:102E80000202914200902DD0FFE7029801680120D4
:102E900041F25032C4F202029142009022D0FFE788
:102EA00002980168012041F25032C5F202029142BB
:102EB000009017D0FFE702980168012041F2D0325C
:102EC000C4F20202914200900CD0FFE70298006821
:102ED0004EF63041CAF6FD710844B0FA80F0400960
:102EE0000090FFE70098C00708B1FFE7FFE7FFE7A2
:102EF0000299002081F84C00FFE70299022081F836
:102F0000540002980168486940F006004861FFE7F4
:102F1000029800684069C00798B1FFE700F0D4FF4D
:102F20000199401A06280BD3FFE702991020886503
:102F30000299032081F8540001208DF80F0010E061
:102F4000E6E70298FEF7B8F90299886C08650299DD
:102F500000208865029A012182F854108DF80F0034
:102F6000FFE79DF80F0004B080BD000080B58CB075
:102F70000A90099108920A9818B1FFE7089820B9B9
:102F8000FFE701208DF82F00B9E00A984069012879
:102F900007D1FFE70A990420086101208DF82F006E
:102FA000ADE00A9800680999089AFDF72FFF38B13B
:102FB000FFE70A990520086101208DF82F009EE0A7
:102FC0000A9800680999089AFDF754FF38B1FFE79D
:102FD0000A990420086101208DF82F008FE00A99DA
:102FE000022008730A9900200861089807A906AA18
:102FF000FEF728F80A980068E0B9FFE7099838B9A1
:10300000FFE708980A9908600A990120886010E093
:1030100009980A99086008984FF6FC7108400799CA
:1030200008430999069A41F822000A99022088600B
:10303000FFE75BE0099878B9FFE70A9800684FF668
:10304000FC710840079908430899069A41F8220044
:1030500008980A99086044E0069801900A9809992E
:1030600001AAFDF74BFFA0BBFFE703980A99896807
:1030700088421BD1FFE70A98406860B1FFE70A98D1
:1030800040684FF6FC710840079908430899069A72
:1030900041F82200FFE708984FF6FC7108400799B5
:1030A00008430999069A41F8220011E00998069A06
:1030B00050F82200089941F8220008984FF6FC7158
:1030C0000840079908430999069A41F82200FFE74A
:1030D00006E00A990620086101208DF82F000EE015
:1030E000FFE70A99886801308860FFE70A990020A5
:1030F00008610A9A012111738DF82F00FFE79DF8EE
:103100002F000CB080BD000085B0039002910398A1
:1031100018B1FFE7029820B9FFE701208DF81300EE
:10312000BFE00398006D20B9FFE701208DF8130080
:10313000B7E0039890F854008DF80700039890F8D2
:103140005400022805D0FFE79DF8070005280DD19F
:10315000FFE7039940208865FFE70399002081F885
:103160004C00FFE701208DF813009AE00298007BE5
:10317000022806D1FFE70299012008618DF81300AB
:103180008FE003980168012040F25032C4F202023D
:10319000914200904ED0FFE703980168012040F271
:1031A0005032C5F202029142009043D0FFE70398EB
:1031B0000168012040F2D032C4F202029142009034
:1031C00038D0FFE703980168012040F2D032C5F201
:1031D0000202914200902DD0FFE703980168012080
:1031E00041F25032C4F202029142009022D0FFE735
:1031F00003980168012041F25032C5F20202914267
:10320000009017D0FFE703980168012041F2D03207
:10321000C4F20202914200900CD0FFE703980068CC
:103220004EF63041CAF6FD710844B0FA80F040090C
:103230000090FFE70098C00778B9FFE702980068A0
:1032400090F820008007002807D5FFE702990320A7
:10325000086101208DF8130023E00398006D812898
:103260000CD1FFE70298406838B9FFE702990420C3
:10327000086101208DF8130013E00BE0029840680C
:1032800038B1FFE702990420086101208DF813008E
:1032900007E0FFE702980399486700208DF81300C4
:1032A000FFE79DF8130005B07047000080B58AB0B5
:1032B0000890089820B9FFE701208DF8270056E014
:1032C0000898006838B9FFE70899022008610120D2
:1032D0008DF827004BE00898406888B1FFE7089810
:1032E00001684068884204D1FFE700208DF827007C
:1032F0003DE008990420086101208DF8270036E0A0
:1033000008984069012807D1FFE70899042008615F
:1033100001208DF827002AE00899022008730899F7
:103320000020009008610898006807A906AAFDF728
:1033300089FE009906980190089801AAFDF7DEFD24
:103340000098089909684FF6FC721140079A1143DA
:10335000049A069B42F82310089A11685160089954
:103360000861089A012111738DF82700FFE79DF885
:1033700027000AB080BD000080B586B00490049894
:1033800020B1FFE70498406F20B9FFE701208DF8D6
:10339000170090E00498006D20B9FFE701208DF838
:1033A000170088E0049890F854008DF80F000498F6
:1033B0000068406900F4803002909DF80F000128F9
:1033C00009D0FFE79DF80F00022863D1FFE70298BC
:1033D00000285FD0FFE7049890F85400012852D1EC
:1033E000FFE7FFE7049890F84C00012804D1FFE7BD
:1033F00002208DF817005EE00499012081F84C004E
:10340000FFE7FFE70499022081F854000499496F0F
:1034100008730499002088650499496F086104982D
:103420000168486940F4BA4048610498406E38B178
:10343000FFE704980168486940F400704861FFE7BD
:103440000498006F38B1FFE704980168486940F4B8
:1034500000504861FFE70498406F006801A900220E
:10346000FDF7F0FD04980168406F40880004086093
:1034700004980168406F00684FF6FC721040019A92
:103480001043C867FFE704980168486940F00100ED
:1034900048610CE0049940208865FFE7049900200A
:1034A00081F84C00FFE701208DF8170003E00020B1
:1034B0008DF81700FFE79DF8170006B080BD0000EB
:1034C00085B003900291039820B9FFE701208DF8A1
:1034D00013002AE00398006840F6FF7188430190CA
:1034E000039800685038C0F3C41101208840009050
:1034F0009DF80800C006002813D5FFE7029800F0E9
:103500001100112806D1FFE7009A0199486810437D
:10351000486005E0009A0199486890434860FFE7D9
:10352000FFE700208DF81300FFE79DF8130005B0BA
:103530007047000080B584B003900398006840F69F
:10354000FF7188430290039800685038C0F3C4119B
:103550000120884001900298C068019908400090BD
:10356000009808B9FFE74DE103980068006940053D
:10357000002813D5FFE7039800684069400500283C
:103580000BD5FFE7039801684FF48060C86003998A
:10359000886D40F001008865FFE7FFE70398006849
:1035A00000690005002813D5FFE70398006840690B
:1035B000000500280BD5FFE7039801684FF4006071
:1035C000C8600399886D40F002008865FFE7FFE757
:1035D000039800680069C004002813D5FFE703982A
:1035E00000684069C00400280BD5FFE70398016814
:1035F0004FF48050C8600399886D40F004008865DE
:10360000FFE7FFE70398006800694004002813D52E
:10361000FFE7039800684069400400280BD5FFE7E6
:10362000039801684FF48040C8600399886D40F0AA
:1036300008008865FFE7FFE70398006800698005D8
:10364000002816D5FFE70398006840698005002828
:103650000ED5FFE7039801684FF40070C860039827
:10366000406E20B1FFE70398416E8847FFE7FFE710
:10367000FFE70398006800698004002850D5FFE741
:103680000398006840698004002848D5FFE7039844
:1036900001684FF40050C860039890F85400042863
:1036A0002FD1FFE703980168486920F40050486172
:1036B00003980168486940F00200486103990120BD
:1036C00081F85400039890F850000006002809D5AE
:1036D000FFE70398416F01200873039801680020F9
:1036E0008864FFE7FFE70399002081F84C00FFE7BB
:1036F0000398C06E20B1FFE70398C16E8847FFE7CB
:1037000080E00399052081F854000398006F20B1F0
:10371000FFE70398016F8847FFE7FFE7FFE7FFE751
:10372000039800680069C005002842D5FFE70398A8
:1037300000684069C00500283AD5FFE7039890F873
:1037400050000006002814D5FFE703980068C06FFA
:1037500070B9FFE703980068806C40B9FFE70399F0
:10376000012081F854000399496F0873FFE7FFE7D0
:103770000AE003980068806C28B9FFE703990120EC
:1037800081F85400FFE7FFE7039801684FF44070A9
:10379000C860FFE70399002081F84C00FFE7039819
:1037A000006E20B1FFE70398016E8847FFE7FFE74F
:1037B000FFE70398806D28B3FFE703980168486925
:1037C00040F0020048610399012081F854000398F9
:1037D00090F850000006002805D5FFE70398416FD8
:1037E00001200873FFE7FFE70399002081F84C00F0
:1037F000FFE70398806E20B1FFE70398816E88474A
:10380000FFE7FFE704B080BD80B586B00490039168
:1038100002920193049820B9FFE701208DF8170068
:103820005FE00498006D20B1FFE701208DF81700DC
:1038300057E0FFE7049890F84C00012804D1FFE717
:1038400002208DF817004CE00499012081F84C000B
:10385000FFE7FFE7049890F85400012830D1FFE714
:103860000499022081F85400049900208865049886
:103870000399029A019BFDF727FF049801684869A4
:1038800040F4BA4048610498406E38B1FFE70498AC
:103890000168486940F400704861FFE70498006FD0
:1038A00038B1FFE704980168486940F40050486166
:1038B000FFE704980168486940F0010048610CE0A6
:1038C000049940208865FFE70499002081F84C00A6
:1038D000FFE701208DF8170003E000208DF81700A6
:1038E000FFE79DF8170006B080BD000083B001908F
:1038F0000091019820B9FFE701208DF80B0006E048
:1039000000980199086000208DF80B00FFE79DF8F2
:103910000B0003B07047000080B586B00590059895
:103920000068C0F3004001900598006800F01F0196
:10393000012088400290019942F20C00C4F202403A
:1039400000EB41100490049800680299084003902D
:10395000039860B1FFE702980499086005984068F1
:1039600020B1FFE7059840688047FFE7FFE701992E
:1039700042F21000C4F2024000EB4110049004989F
:103980000068029908400390039860B1FFE702982D
:10399000049908600598806820B1FFE70598806861
:1039A0008047FFE7FFE706B080BD000085B00490C8
:1039B0008DF80F10029200208DF807009DF80F007F
:1039C0000146009140B1FFE7009801280BD0FFE7C6
:1039D000009802280BD00EE00298049948600298E3
:1039E000049988600BE002980499486007E0029807
:1039F0000499886003E001208DF80700FFE79DF837
:103A0000070005B07047000085B0049003910020C6
:103A10000090FFE703980099C840002800F09980C3
:103A2000FFE70398009A0121914008400190019816
:103A3000002800F08A80FFE7009820F0030042F29F
:103A40006001C4F2024140580290009800F0030067
:103A5000C1000F2000FA01F102980840029002987C
:103A600004994FF60042CBF6FD521140890A009AA4
:103A700002F00302D2009140884233D1FFE7019A5D
:103A800042F28001C4F20241086890430860019A42
:103A900042F28401C4F20241086890430860019A2E
:103AA00042F20001C4F20241086890430860019AA2
:103AB00042F20401C4F20241086890430860009891
:103AC00000F00300C1000F2088400290029B009884
:103AD00020F0030142F26002C4F202428858984387
:103AE0008850FFE700984100032000FA01F3049A90
:103AF000116819431160DDF800C00CF007018A005D
:103B00000F2101FA02F304996FF0030202EA5C024A
:103B10000A44116A994311620099490000FA01F3BD
:103B2000049A916899439160009A012101FA02F385
:103B3000049A5168994351600099490000FA01F2D2
:103B40000499C8689043C860FFE70098013000906E
:103B500060E705B07047000085B004900391002035
:103B60000090FFE7039800680099C840002800F023
:103B70006681FFE703980068009A012191400840A0
:103B800001900198002800F05681FFE703984068F3
:103B9000022805D0FFE703984068122828D1FFE7E4
:103BA000049800996FF0030202EA51010844006A88
:103BB0000290009800F0070081000F2000FA01F148
:103BC0000298884302900398006900F00F00009962
:103BD00001F00701890000FA01F102980843029000
:103BE00002980499009B02EA530211440862FFE71D
:103BF00004980068029000984100032000FA01F147
:103C00000298884302900398406800F003000099EE
:103C1000490000FA01F102980843029002980499C1
:103C200008600398406801280FD0FFE703984068B8
:103C300002280AD0FFE703984068112805D0FFE763
:103C40000398406812282FD1FFE7049880680290FB
:103C500000984100032000FA01F102988843029085
:103C60000398C0680099490000FA01F102980843DE
:103C70000290029804998860049840680290009924
:103C8000012000FA01F102988843029003984068ED
:103C9000C0F30010009900FA01F102980843029065
:103CA000029804994860FFE70398406800F0030019
:103CB00003280CD1FFE70398406800F003000328B5
:103CC0001DD1FFE703988068012818D0FFE704980A
:103CD000C068029000984100032000FA01F10298A8
:103CE00088430290039880680099490000FA01F126
:103CF00002980843029002980499C860FFE703986D
:103D0000C079C006002840F19580FFE7009820F0B8
:103D1000030042F26002C4F202428058029000980E
:103D200000F00300C1000F2000FA01F1029888435F
:103D3000029004984FF60041CBF6FD510840800AEE
:103D4000009901F00301C90000FA01F1029808434B
:103D500002900298009921F00301885042F200007D
:103D6000C4F20240006802900199029888430290D0
:103D700003988079C006002805D5FFE701990298CD
:103D800008430290FFE7029842F20001C4F20241A8
:103D9000086042F20400C4F20240006802900199F7
:103DA000029888430290039880798006002805D500
:103DB000FFE70199029808430290FFE7029842F258
:103DC0000401C4F20241086042F28400C4F20240DD
:103DD00000680290019902988843029003988079C4
:103DE0008007002805D5FFE7019902980843029053
:103DF000FFE7029842F28401C4F20241086042F2F5
:103E00008000C4F202400068029001990298884341
:103E1000029003988079C00728B1FFE701990298C2
:103E200008430290FFE7029842F28001C4F2024187
:103E30000860FFE7FFE700980130009092E605B0C8
:103E40007047000082B00190ADF80210019800693F
:103E5000BDF80210084204D0FFE701208DF80100F0
:103E600003E000208DF80100FFE79DF8010002B09B
:103E70007047000083B00290ADF8061002984069C8
:103E80000090009ABDF8060002EA0001904340EA63
:103E900001400299886103B07047000082B0019030
:103EA000ADF802108DF801209DF8010028B1FFE760
:103EB000BDF802000199886104E0BDF80200019993
:103EC0008862FFE702B0704740F65C10C2F2000063
:103ED0000068704782B0019000208DF8030040F226
:103EE0000040C4F203000068C00720B1FFE70120D2
:103EF0008DF803000AE040F20041C4F203010868B3
:103F000020F00400019A10430860FFE79DF80300C9
:103F100002B0704740F20041C4F20301086840F06B
:103F2000010008600020704740F25000C2F200001B
:103F3000027840F65C11C2F2000108681044086083
:103F40007047000080B582B0032000F0D9F804F07B
:103F5000E9FA40F62041C4F20241096801F00F027B
:103F600045F2B421C0F60101895CC84040F2140159
:103F7000C2F200010860042006F07EF90F2000F074
:103F800011F820B1FFE701208DF8070005E000F0EF
:103F900093F800208DF80700FFE79DF8070002B0B6
:103FA00080BD000080B586B004900020039040F2F0
:103FB0005000C2F20000007820B9FFE701208DF820
:103FC000170075E04EF21000CEF2000000684007C6
:103FD000002812D5FFE740F21400C2F2000000688A
:103FE00040F25001C2F200010A784FF47A71B1FB3D
:103FF000F2F1B0FBF1F0039040E006F0B1F902906D
:104000000298019040B1FFE70198012816D0FFE720
:104010000198022821D02FE040F21400C2F20000E3
:10402000006840F25001C2F200010A784FF4FA51E0
:10403000B1FBF2F1B0FBF1F003901EE040F2500052
:10404000C2F2000001784FF47A70B0FBF1F14FF446
:10405000FA40B0FBF1F003900FE040F25000C2F2E2
:10406000000001784FF47A70B0FBF1F14FF400409A
:10407000B0FBF1F0039000E0FFE7FFE7039806F0E4
:1040800049F920B1FFE701208DF8170010E00499ED
:104090004FF0FF300022009200F01AF800980499C7
:1040A00040F25402C2F2000211608DF81700FFE7DF
:1040B0009DF8170006B080BD7047000080B582B043
:1040C000ADF80600BDF906000AF0B6FB02B080BDEF
:1040D00080B586B0ADF81600049103920AF0DCFBBF
:1040E0000290BDF91600019002980499039A08F015
:1040F00039F8014601980AF0D7FB06B080BD0000F0
:1041000080B582B0019001980AF0F0FB02B080BD4A
:1041100082B0019001980068009001990120C1F8D7
:10412000D8020199002081F8CC02009A516D41F02B
:1041300001015165009A516D41F00201516502B0D3
:104140007047000082B001908DF8031002B07047F4
:1041500082B001908DF8031002B0704782B00190D8
:104160008DF8031002B0704780B588B007900691B3
:10417000ADF81620BDF81600400400286BD5FFE707
:10418000079800680699097808F02CFBADF8140030
:1041900006988069BDF81410884207D3FFE7BDF880
:1041A000142006998869801A886103E00699002026
:1041B0008861FFE706988069E8B9FFE7FFE707989D
:1041C00000680699097850F821004BF68F71C0F20B
:1041D000FF7108400490049880F400500490049803
:1041E00048F28001084307990968069A127841F855
:1041F0002200FFE7FFE7BDF81600400600281BD5A8
:10420000FFE7FFE7FFE7079800680699097850F88D
:10421000210048F68F71C0F2FF71084003900398A7
:1042200048F2C001084307990968069A127841F8D4
:104230002200FFE7FFE7FFE7BDF8140050B1FFE7FA
:1042400007980068069A51691289BDF814300AF07F
:10425000CFF9FFE76AE0079800680699097808F047
:10426000DBFAADF8140006988069BDF81410884296
:1042700007D3FFE7BDF8142006998869801A886182
:1042800003E0069900208861FFE706988069E8B995
:10429000FFE7FFE7079800680699097850F82100C2
:1042A0004BF68F71C0F2FF7108400290029880F4C3
:1042B00000500290029848F280010843079909686B
:1042C000069A127841F82200FFE7FFE7BDF81600D2
:1042D000400600281BD4FFE7FFE7FFE707980068C8
:1042E0000699097850F8210048F68F71C0F2FF71E5
:1042F00008400190019848F2C001084307990968F5
:10430000069A127841F82200FFE7FFE7FFE7BDF8C1
:10431000140050B1FFE707980068069A5169528966
:10432000BDF814300AF064F9FFE7FFE7BDF81400A8
:1043300008B080BD80B594B012901191ADF84220C4
:10434000BDF842004006002840F1C181FFE7129805
:1043500000681199097808F045FAADF83A0011980B
:104360008069BDF83A10884207D9FFE7BDF83A20C6
:1043700011998869801A886103E011990020886189
:10438000FFE711988069002840F0B980FFE7FFE758
:1043900011984078B8B9FFE7FFE71198027846F224
:1043A0000041C4F2010151F8320020F07C4041F894
:1043B00032001198027851F8320040F0004041F884
:1043C0003200FFE719E011984078012814D1FFE787
:1043D000FFE71198027846F20041C4F2010151F85A
:1043E000320080B241F832001198027851F8320060
:1043F00041F83200FFE7FFE7FFE7FFE7FFE711982B
:104400004078B8B9FFE7FFE71198027846F2044117
:10441000C4F2010151F8320020F07C4041F8320032
:104420001198027851F8320040F0004041F8320013
:10443000FFE717E011984078012812D1FFE71198A3
:10444000027846F20441C4F2010151F8320080B210
:1044500041F832001198027851F8320041F83200E8
:10446000FFE7FFE7FFE71198C07802281DD1FFE7BB
:10447000FFE7129800681199097850F8210048F672
:10448000BF71C0F2FF7108400B900B9880F02000C4
:104490000B900B9848F28001084312990968119A11
:1044A000127841F82200FFE7FFE712981199097886
:1044B000FFF74EFEBDF84200400400281BD5FFE781
:1044C000FFE7FFE7129800681199097850F821007A
:1044D00048F68F71C0F2FF7108400A900A984CF2BA
:1044E0008001084312990968119A127841F8220054
:1044F000FFE7FFE7FFE700208DF84F00C9E2BDF8B6
:104500004200400400281BD5FFE7FFE7FFE71298B1
:1045100000681199097850F8210048F68F71C0F2AF
:10452000FF710840099009984CF2800108431299E4
:104530000968119A127841F82200FFE7FFE7FFE7C8
:10454000119890F82400012840F0BF80FFE7BDF8E3
:104550003A201199486910444861BDF83A201199F0
:10456000C8691044C86111980169006A884209D37A
:10457000FFE7119800690F900F9A1199086A801A45
:10458000086216E01198006A40B9FFE7BDF83A00EA
:104590000F901199002081F8240009E01199002062
:1045A00081F824001199096A0F9111990862FFE7B7
:1045B000FFE7FFE71198407800285ED1FFE7FFE7AB
:1045C0001198027846F20041C4F2010151F832001C
:1045D00020F07C4041F832000F9868B9FFE711984D
:1045E000027846F20041C4F2010151F8320040F075
:1045F000004041F832003EE00F983E281CD8FFE70B
:10460000FFE70F98400808909DF83C00C00720B1D4
:10461000FFE7089801300890FFE7089B119802789F
:1046200046F20041C4F2010151F8320040EA8360D1
:1046300041F83200FFE71DE0FFE70F9840090890BE
:104640009DF83C00C00620B9FFE7089801380890A3
:10465000FFE7089B1198027846F20041C4F201017D
:1046600051F8320040EA836040F0004041F83200E7
:10467000FFE7FFE7FFE7FFE71CE01198407801281C
:1046800017D1FFE7FFE71198027846F20041C4F224
:10469000010151F8320080B241F832000F9B1198AD
:1046A000027851F8320040EA034041F83200FFE757
:1046B000FFE7FFE7FFE712980068119A5169128936
:1046C000BDF83C300AF030F8FFE7FFE7BDE1129893
:1046D00000681199097808F09FF8ADF83A00119830
:1046E0008069BDF83A10884207D3FFE7BDF83A2049
:1046F00011998869801A886103E011990020886106
:10470000FFE711988069002840F0B980FFE7FFE7D4
:1047100011984078B8B9FFE7FFE71198027846F2A0
:104720000041C4F2010151F8320020F07C4041F810
:1047300032001198027851F8320040F0004041F800
:104740003200FFE719E011984078012814D1FFE703
:10475000FFE71198027846F20041C4F2010151F8D6
:10476000320080B241F832001198027851F83200DC
:1047700041F83200FFE7FFE7FFE7FFE7FFE71198A7
:104780004078B8B9FFE7FFE71198027846F2044194
:10479000C4F2010151F8320020F07C4041F83200AF
:1047A0001198027851F8320040F0004041F8320090
:1047B000FFE717E011984078012812D1FFE7119820
:1047C000027846F20441C4F2010151F8320080B28D
:1047D00041F832001198027851F8320041F8320065
:1047E000FFE7FFE7FFE71198C07802281DD1FFE738
:1047F000FFE7129800681199097850F8210048F6EF
:10480000BF71C0F2FF7108400590059880F020004C
:104810000590059848F28001084312990968119A99
:10482000127841F82200FFE7FFE712981199097802
:10483000FFF78EFCBDF84200400400281BD4FFE7C0
:10484000FFE7FFE7129800681199097850F82100F6
:1048500048F68F71C0F2FF710840049004984CF242
:104860008001084312990968119A127841F82200D0
:10487000FFE7FFE7FFE700208DF84F0009E1BDF8F3
:104880004200400400281BD4FFE7FFE7FFE712982F
:1048900000681199097850F8210048F68F71C0F22C
:1048A000FF710840039003984CF28001084312996D
:1048B0000968119A127841F82200FFE7FFE7FFE745
:1048C000119890F82400012840F0BD80FFE7BDF862
:1048D0003A201199486910444861BDF83A2011996D
:1048E000C8691044C86111980169006A884209D3F7
:1048F000FFE7119800690F900F9A1199086A801AC2
:10490000086216E01198006A40B9FFE7BDF83A0066
:104910000F901199002081F8240009E01198006A95
:104920000F90119900200862119981F82400FFE787
:10493000FFE7FFE71198407800285ED1FFE7FFE727
:104940001198027846F20441C4F2010151F8320094
:1049500020F07C4041F832000F9868B9FFE71198C9
:10496000027846F20441C4F2010151F8320040F0ED
:10497000004041F832003EE00F983E281CD8FFE787
:10498000FFE70F98400802909DF83C00C00720B157
:10499000FFE7029801300290FFE7029B119802782E
:1049A00046F20441C4F2010151F8320040EA83604A
:1049B00041F83200FFE71DE0FFE70F984009029041
:1049C0009DF83C00C00620B9FFE70298013802902C
:1049D000FFE7029B1198027846F20441C4F20101FC
:1049E00051F8320040EA836040F0004041F8320064
:1049F000FFE7FFE7FFE7FFE71AE01198407801289B
:104A000015D1FFE71198027846F20441C4F2010182
:104A100051F8320080B241F832000F9B11980278B1
:104A200051F8320040EA034041F83200FFE7FFE767
:104A3000FFE712980068119A51695289BDF83C301D
:104A400009F072FEFFE7FFE7FFE7FFE71298006853
:104A50001199097850F8210048F6BF71C0F2FF7132
:104A600008400190019880F010000190019880F0BA
:104A700020000190019848F28001084312990968CA
:104A8000119A127841F82200FFE700208DF84F00BC
:104A9000FFE79DF84F0014B080BD000080B582B0E4
:104AA00001900198006809F09BFD00909DF80100BD
:104AB0000006002804D5FFE7019807F089FBCAE04B
:104AC0009DF80100400700280FD5FFE70198016815
:104AD000486C4FF6FF3210404864019800F010FA1D
:104AE0000198002100F018FAB5E09DF80100400699
:104AF000002808D5FFE701980168486C4BF6FF7263
:104B000010404864A7E09DF801008006002808D501
:104B1000FFE701980168486C4DF6FF721040486449
:104B200099E09DF80100C006002825D5FFE701980F
:104B30000168086C20F00400086401980168086CA2
:104B400020F008000864019890F8CC02012808D1F0
:104B5000FFE70198002180F8CC120198FFF7F2FAE4
:104B6000FFE7019800F0D0F901980168486C4EF613
:104B7000FF72104048646EE09DF8010000070028B5
:104B800017D5FFE701980168086C40F00800086439
:104B900001980168486C4FF2FF7210404864019818
:104BA0000168086C40F004000864019800F0E6F920
:104BB00051E09DF80000000600282ED5FFE701987F
:104BC0000168486C4FF67F7210404864019890F875
:104BD000CC02E8B9FFE701980168086C40F00400D6
:104BE000086401980168086C40F0080008640198A6
:104BF000012180F8CC1201980068406D00F0F000AF
:104C00008008019AC2F8D0020198FFF79BFA03E0EE
:104C1000019800F0B3F9FFE71DE09DF8010080075F
:104C200000280BD5FFE701980168486C4FF6FF524A
:104C300010404864019800F06BF90CE09DF8010009
:104C4000C00740B1FFE701980168486C4FF6FF626A
:104C500010404864FFE702B080BD000080B58CB012
:104C60000A900A9820B9FFE701208DF82F0006E18D
:104C70000A9890F8950240B9FFE70A99002081F858
:104C800094020A9800F000F9FFE70A99032081F8DE
:104C900095020A98006808F06BFF0A9B1868197C57
:104CA0008DF8201059689A68DB6807930692059181
:104CB0000599069A079BDDF820C0EE46CEF800C0A5
:104CC00008F0D8FE40B1FFE70A99022081F895026A
:104CD00001208DF82F00D2E00A980068002109F029
:104CE000EDFC40B1FFE70A99022081F8950201200E
:104CF0008DF82F00C3E000208DF82700FFE79DF816
:104D000027000A990979884239DAFFE70A989DF85D
:104D1000271001EB810100EBC101012048759DF8CE
:104D200027000A9900EB800201EBC20108750A987E
:104D30009DF8271001EB810100EBC1010020C8752F
:104D40000A999DF8272002EB820201EBC20148621A
:104D50000A999DF8272002EB820201EBC2018862CA
:104D60000A999DF8272002EB820201EBC201C8627A
:104D7000FFE79DF8270001308DF82700BFE70020EE
:104D80008DF82700FFE79DF827000A9909798842E6
:104D90003EDAFFE70A989DF8271001EB810100EB4E
:104DA000C101002081F855019DF827100A9A01EBF6
:104DB000810302EBC30282F854110A999DF827205F
:104DC00002EB820201EBC20181F857010A999DF8BA
:104DD000272002EB820201EBC201C1F864010A99AB
:104DE0009DF8272002EB820201EBC201C1F86801A5
:104DF0000A999DF8272002EB820201EBC201C1F85B
:104E00006C01FFE79DF8270001308DF82700BAE715
:104E10000A9B1868197C8DF8101059689A68DB682D
:104E20000393029201910199029A039BDDF810C04D
:104E3000EE46CEF800C008F06FFE40B1FFE70A99D9
:104E4000022081F8950201208DF82F0017E00A99C1
:104E5000002048740A99012081F895020A98007B85
:104E6000012804D1FFE70A98FFF752F9FFE70A98F3
:104E7000006808F047FE00208DF82F00FFE79DF83E
:104E80002F000CB080BD000080B5B8B0379002A8EC
:104E9000D021FBF765FB3798006846F20001C4F2A9
:104EA0000101884229D1FFE71020039000200290E1
:104EB0003020339002A802F0C5F818B1FFE7FCF7E4
:104EC0002BFCFFE700F05EF8FFE740F6A440C4F2D9
:104ED0000240016841F080710160006800F080705C
:104EE00001900198FFE74A20009000221146FFF749
:104EF000EFF80098FFF7E2F8FFE738B080BD000058
:104F000081B0009001B0704781B0009001B070474F
:104F100081B0009001B0704780B584B002908DF8E8
:104F20000710FFE7029890F89402012804D1FFE7E8
:104F300002208DF80F0019E00299012081F89402F7
:104F4000FFE7FFE79DF807000299487402980068A0
:104F50009DF8071009F0D8FBFFE70299002081F8BF
:104F60009402FFE700208DF80F00FFE79DF80F0087
:104F700004B080BD81B0009001B0704781B0009056
:104F800001B0704740F63801C4F20241086840F0B1
:104F9000007008607047000089B0089040F6344007
:104FA000C4F2024000686FF35F20059040F628408D
:104FB000C4F20240016801F0030107910168C1F3E6
:104FC000052106910068C0F300100490049840F693
:104FD0003841C4F20241096889B2C90800FB01F0F6
:104FE00000EE100AB8EE400A8DED020A069800287D
:104FF00000F03D81FFE707980090012808D0FFE707
:105000000098022830D0FFE70098032849D065E0D7
:1050100040F60040C4F202400068C0F3C10149F20A
:105020000000C0F2D030C84003909DED030AB8EEF6
:10503000400A9DED061AB8EE411A80EE010A9DED78
:10504000051AB8EE411A9DED022A9FED8F3A82EEC5
:10505000032A31EE021AB7EE002A31EE021A20EED0
:10506000010A8DED010A65E09DED060AB8EE401AD1
:105070009FED860A80EE010A9DED051AB8EE411AF1
:105080009DED022A9FED803A82EE032A31EE021A4C
:10509000B7EE002A31EE021A20EE010A8DED010A68
:1050A00048E09DED060AB8EE401A9FED760A80EEC4
:1050B000010A9DED051AB8EE411A9DED022A9FEDF9
:1050C000723A82EE032A31EE021AB7EE002A31EE6E
:1050D000021A20EE010A8DED010A2BE040F6004095
:1050E000C4F202400068C0F3C10149F20000C0F2FE
:1050F000D030C84003909DED030AB8EE400A9DED04
:10510000061AB8EE411A80EE010A9DED051AB8EEB6
:10511000411A9DED022A9FED5C3A82EE032A31EEA0
:10512000021AB7EE002A31EE021A20EE010A8DEDC6
:10513000010AFFE740F60040C4F202400068800127
:10514000002827D5FFE740F62840C4F20240006857
:10515000C003002819D5FFE79DED010A40F6344051
:10516000C4F20240006880B2400A01EE100AB8EEB4
:10517000411AB7EE002A31EE021A80EE010A0898B1
:10518000BCEEC00A80ED000A03E008990020086028
:10519000FFE703E0089900200860FFE740F60040C1
:1051A000C4F2024000688001002827D5FFE740F6DE
:1051B0002840C4F2024000688003002819D5FFE7A8
:1051C0009DED010A40F63440C4F202400068C0F38D
:1051D000064001EE100AB8EE411AB7EE002A31EE91
:1051E000021A80EE010A0898BCEEC00A80ED010A9E
:1051F00003E0089900204860FFE703E008990020D9
:105200004860FFE740F60040C4F2024000688001B9
:10521000002827D5FFE740F62840C4F20240006886
:105220004003002819D5FFE79DED010A40F6344000
:10523000C4F202400068C0F3066001EE100AB8EE46
:10524000411AB7EE002A31EE021A80EE010A0898E0
:10525000BCEEC00A80ED020A03E0089900208860D5
:10526000FFE703E0089900208860FFE707E008995E
:10527000002008600899486008998860FFE709B035
:10528000704700BF20BCBE4B000000460024744A9B
:1052900089B0089040F63C40C4F2024000686FF3C9
:1052A0005F20059040F62C40C4F20240016801F0F6
:1052B000030107910168C1F3052106910068C0F35D
:1052C00000100490049840F64041C4F2024109687D
:1052D00089B2C90800FB01F000EE100AB8EE400ADE
:1052E0008DED020A0698002800F03D81FFE707983F
:1052F0000090012808D0FFE70098022830D0FFE78F
:105300000098032849D065E040F60040C4F202400E
:105310000068C0F3C10149F20000C0F2D030C840BB
:1053200003909DED030AB8EE400A9DED061AB8EE13
:10533000411A80EE010A9DED051AB8EE411A9DED65
:10534000022A9FED8F3A82EE032A31EE021AB7EE5F
:10535000002A31EE021A20EE010A8DED010A65E005
:105360009DED060AB8EE401A9FED860A80EE010A0E
:105370009DED051AB8EE411A9DED022A9FED803A87
:1053800082EE032A31EE021AB7EE002A31EE021A3B
:1053900020EE010A8DED010A48E09DED060AB8EE07
:1053A000401A9FED760A80EE010A9DED051AB8EECF
:1053B000411A9DED022A9FED723A82EE032A31EEE8
:1053C000021AB7EE002A31EE021A20EE010A8DED24
:1053D000010A2BE040F60040C4F202400068C0F32E
:1053E000C10149F20000C0F2D030C84003909DEDE9
:1053F000030AB8EE400A9DED061AB8EE411A80EE97
:10540000010A9DED051AB8EE411A9DED022A9FEDA5
:105410005C3A82EE032A31EE021AB7EE002A31EE30
:10542000021A20EE010A8DED010AFFE740F6004066
:10543000C4F2024000680001002827D5FFE740F6CB
:105440002C40C4F202400068C003002819D5FFE7D1
:105450009DED010A40F63C40C4F20240006880B273
:10546000400A01EE100AB8EE411AB7EE002A31EEFA
:10547000021A80EE010A0898BCEEC00A80ED000A0C
:1054800003E0089900200860FFE703E00899002086
:105490000860FFE740F60040C4F2024000680001E7
:1054A000002827D5FFE740F62C40C4F202400068F0
:1054B0008003002819D5FFE79DED010A40F63C4026
:1054C000C4F202400068C0F3064001EE100AB8EED4
:1054D000411AB7EE002A31EE021A80EE010A08984E
:1054E000BCEEC00A80ED010A03E008990020486084
:1054F000FFE703E0089900204860FFE740F600401E
:10550000C4F2024000680001002827D5FFE740F6FA
:105510002C40C4F2024000684003002819D5FFE780
:105520009DED010A40F63C40C4F202400068C0F321
:10553000066001EE100AB8EE411AB7EE002A31EE0D
:10554000021A80EE010A0898BCEEC00A80ED020A39
:1055500003E0089900208860FFE703E00899002035
:105560008860FFE707E00899002008600899486014
:1055700008998860FFE709B0704700BF20BCBE4BA8
:10558000000000460024744A89B0089040F6444068
:10559000C4F2024000686FF35F20059040F630408F
:1055A000C4F20240016801F0030107910168C1F3F0
:1055B000052106910068C0F300100490049840F69D
:1055C0004841C4F20241096889B2C90800FB01F0F0
:1055D00000EE100AB8EE400A8DED020A0698002887
:1055E00000F03D81FFE707980090012808D0FFE711
:1055F0000098022830D0FFE70098032849D065E0E2
:1056000040F60040C4F202400068C0F3C10149F214
:105610000000C0F2D030C84003909DED030AB8EE00
:10562000400A9DED061AB8EE411A80EE010A9DED82
:10563000051AB8EE411A9DED022A9FED8F3A82EECF
:10564000032A31EE021AB7EE002A31EE021A20EEDA
:10565000010A8DED010A65E09DED060AB8EE401ADB
:105660009FED860A80EE010A9DED051AB8EE411AFB
:105670009DED022A9FED803A82EE032A31EE021A56
:10568000B7EE002A31EE021A20EE010A8DED010A72
:1056900048E09DED060AB8EE401A9FED760A80EECE
:1056A000010A9DED051AB8EE411A9DED022A9FED03
:1056B000723A82EE032A31EE021AB7EE002A31EE78
:1056C000021A20EE010A8DED010A2BE040F600409F
:1056D000C4F202400068C0F3C10149F20000C0F208
:1056E000D030C84003909DED030AB8EE400A9DED0E
:1056F000061AB8EE411A80EE010A9DED051AB8EEC1
:10570000411A9DED022A9FED5C3A82EE032A31EEAA
:10571000021AB7EE002A31EE021A20EE010A8DEDD0
:10572000010AFFE740F60040C4F202400068800032
:10573000002827D5FFE740F63040C4F20240006859
:10574000C003002819D5FFE79DED010A40F644404B
:10575000C4F20240006880B2400A01EE100AB8EEBE
:10576000411AB7EE002A31EE021A80EE010A0898BB
:10577000BCEEC00A80ED000A03E008990020086032
:10578000FFE703E0089900200860FFE740F60040CB
:10579000C4F2024000688000002827D5FFE740F6E9
:1057A0003040C4F2024000688003002819D5FFE7AA
:1057B0009DED010A40F64440C4F202400068C0F387
:1057C000064001EE100AB8EE411AB7EE002A31EE9B
:1057D000021A80EE010A0898BCEEC00A80ED010AA8
:1057E00003E0089900204860FFE703E008990020E3
:1057F0004860FFE740F60040C4F2024000688000C5
:10580000002827D5FFE740F63040C4F20240006888
:105810004003002819D5FFE79DED010A40F64440FA
:10582000C4F202400068C0F3066001EE100AB8EE50
:10583000411AB7EE002A31EE021A80EE010A0898EA
:10584000BCEEC00A80ED020A03E0089900208860DF
:10585000FFE703E0089900208860FFE707E0089968
:10586000002008600899486008998860FFE709B03F
:10587000704700BF20BCBE4B000000460024744AA5
:1058800080B596B0159114901498159980F0007019
:10589000084300285BD1FFE740F6F040C4F2024025
:1058A000016801F44071089100688007002809D55B
:1058B000FFE70898B0F5807F04D1FFE74FF4004080
:1058C0000A9042E040F6F040C4F202400068000155
:1058D000002809D5FFE70898B0F5007F04D1FFE75D
:1058E0004FF4FA400A902FE040F60040C4F2024024
:1058F00000688003002823D5FFE70898B0F5407FB3
:105900001ED1FFE740F61C40C4F20240006800F4DC
:105910007C50B0F5007F0FD3FFE740F61C40C4F287
:1059200002400068C0F3052147F64000C0F27D1038
:10593000B0FBF1F00A9002E000200A90FFE702E0DD
:1059400000200A90FFE7FFE7FFE701F077BB14981C
:1059500006901599079180F001000843002800F097
:105960000381FFE70799069880F0020008430028AA
:1059700000F07881FFE70799069880F0040008435B
:10598000002800F0E481FFE70799069880F00800FE
:105990000843002800F05B82FFE70799069880F033
:1059A00010000843002800F0D582FFE70799069809
:1059B00080F020000843002800F04F83FFE707999C
:1059C000069880F480500843002800F0C983FFE760
:1059D0000799069880F400500843002800F0CC8412
:1059E000FFE70799069880F480400843002800F0FC
:1059F0001585FFE70799069880F4004008430028C2
:105A000000F05E85FFE70799069880F48030084330
:105A1000002800F0A785FFE70799069880F400307A
:105A20000843002800F01886FFE70799069880F4DD
:105A300080200843002800F0BB86FFE707990698FE
:105A400080F400100843002800F0FB83FFE707996B
:105A5000069880F480000843002864D0FFE7079987
:105A6000069880F080600843002801F04F82FFE72D
:105A70000799069880F000600843002800F07987B5
:105A8000FFE70799069880F080500843002800F04F
:105A9000EE87FFE70799069880F00050084300283A
:105AA00001F07280FFE70799069880F08040084374
:105AB000002801F0F280FFE70698079981F00201C3
:105AC0000843002801F06D81FFE70698079981F0EF
:105AD00004010843002800F01687FFE7069807999D
