:020000040800F2
:10000000F00E002021030008158500087D7400080B
:100010001185000831080008F1A800083303000822
:10002000000000000000000000000000ED9000084B
:10003000D908000800000000358C0008C9910008AC
:100040003D0300083D0300083D0300083D03000890
:100050003D0300083D0300083D0300083D03000880
:100060003D0300083D0300083D0300083D03000870
:100070003D0300083D0300083D0300083D03000860
:100080003D0300083D0300083D0300083D03000850
:100090003D0300083D0300083D0300083D03000840
:1000A000DD0800083D0300083D0300083D0300088B
:1000B0003D0300083D0300083D0300083D03000820
:1000C0003D0300083D0300083D0300083D03000810
:1000D0003D0300083D0300083D0300083D03000800
:1000E0003D0300083D0300083D0300083D030008F0
:1000F0003D0300083D0300083D0300083D030008E0
:100100003D0300083D0300083D0300083D030008CF
:100110003D0300083D0300083D0300083D030008BF
:100120003D0300083D0300083D0300083D030008AF
:100130003D0300083D0300083D0300083D0300089F
:100140003D0300083D0300083D0300083D0300088F
:100150003D0300083D0300083D0300083D0300087F
:100160000000000000000000E19B00083D030008C3
:100170003D0300083D0300083D0300083D0300085F
:100180003D0300083D0300083D0300080000000097
:10019000000000003D030008000000000000000017
:1001A00000000000000000003D0300083D030008BF
:1001B0003D0300083D0300083D0300083D0300081F
:1001C0003D0300083D03000800000000000000009F
:1001D0000000000000000000000000003D030008D7
:1001E0003D0300083D03000800000000000000007F
:1001F0003D0300083D0300083D0300080000000027
:10020000000000003D0300083D0300083D03000816
:100210003D0300083D0300083D0300083D030008BE
:100220003D03000800000000000000003D0300083E
:100230003D03000800000000000000000000000076
:100240000000000000000000000000003D03000866
:100250003D03000800F002F800F052F814A696E8FA
:10026000000CB244B344DA4501D100F049F8BAE8D1
:100270000F000FA696E83000A5EB040504EB060777
:10028000AAEB0704A7F101074FEA15154FEA34144A
:10029000A4F10104AC4201D300F032F813F0010FD5
:1002A00018BFFB1A43F0010300F001F8DBE7184721
:1002B0000411010024110100103A24BF78C878C14C
:1002C000FAD8520724BF30C830C144BF04680C605C
:1002D000704700007047000000230024002500261E
:1002E000103A28BF78C1FBD8520728BF30C148BF99
:1002F0000B6070471FB510F0BFFF1FBD10B510BDDC
:1003000000F08AF91146FFF7F5FF0DF0C7F900F08C
:10031000A8F903B4FFF7F2FF03BC00F0AFF9000047
:100320000A4880470A480047FEE7FEE7FEE7FEE787
:10033000FEE7FEE7FEE7FEE7FEE7FEE7FEE700007A
:1003400004480549054A064B7047000081920008A1
:1003500055020008F0080020F00E0020F00A0020EE
:10036000F00A002053EA020C00F069802DE9F04BFE
:100370004FF00006002B1FBFB3FA83F503FA05F414
:1003800024FA05F65E4012BF1643B2FA82F502FA6D
:1003900005F4C5F120051EBF22FA05FC44EA0C0451
:1003A000203556EA044C4FEA144418BF641C4FF041
:1003B00000084FF00009904271EB030C39D300297B
:1003C00019BFB1FA81F701FA07F6B0FA80F700FA1F
:1003D00007F6C7F120071EBF20FA07FC46EA0C0605
:1003E0002037B6FBF4FCA7EB0507103F07F01F0B07
:1003F000CBF120062CFA06F60CFA0BFB44BFB346F1
:100400000026202FA4BF5E464FF0000B5BEA060CCF
:1004100008BF4FF0010B19EB0B0948EB0608ABFBCB
:10042000027C06FB02CC0BFB03CCC01B71EB0C0166
:10043000C1E70B46024641464846BDE8F08B13B57E
:10044000084318BF4FF0FF300146AFF30080BDE80E
:100450001C40704710B5431C02E010F8011B71B13D
:100460008107FAD14FF0013202C88C1A8C4314EA8A
:10047000C211F9D0C01A0A0603D0C01E10BDC01A9E
:1004800010BD0A0401D0801E10BD0902FCD0401E20
:1004900010BD032A40F2308010F0030C00F01580EC
:1004A00011F8013BBCF1020F624498BF11F801CB77
:1004B00000F8013B38BF11F8013BA2F1040298BFDC
:1004C00000F801CB38BF00F8013B11F0030300F046
:1004D0007180083AC0F0088051F8043B083A51F89E
:1004E00004CBA0E80810F5E7121D5CBF51F8043BEF
:1004F00040F8043BAFF30080D20724BF11F8013B62
:1005000011F801CB48BF11F8012B24BF00F8013BC3
:1005100000F801CB48BF00F8012B70474FF00002F4
:100520000429C0F0128010F0030C00F01B80CCF105
:10053000040CBCF1020F18BF00F8012BA8BF20F873
:10054000022BA1EB0C0100F00DB85FEAC17C24BFC7
:1005500000F8012B00F8012B48BF00F8012B704771
:100560004FF0000200B5134694469646203922BF4C
:10057000A0E80C50A0E80C50B1F12001BFF4F7AF97
:10058000090728BFA0E80C5048BF0CC05DF804EB79
:10059000890028BF40F8042B08BF704748BF20F8E7
:1005A000022B11F0804F18BF00F8012B70477047E5
:1005B0007047704710B5203AC0F00B80B1E8185072
:1005C000A0E81850B1E81850A0E81850203ABFF43D
:1005D000F5AF5FEA027C24BFB1E81850A0E81850DC
:1005E00044BF18C918C0BDE810405FEA827C24BF30
:1005F00051F8043B40F8043B08BF7047D20728BFBE
:1006000031F8023B48BF11F8012B28BF20F8023B0C
:1006100048BF00F8012B7047754600F02BF8AE4636
:1006200005006946534620F00700854618B020B5FE
:10063000FFF786FEBDE820404FF000064FF00007B0
:100640004FF000084FF0000BAC46ACE8C009ACE836
:10065000C009ACE8C009ACE8C00921F007018D462B
:10066000704710B50446AFF300802046BDE8104047
:10067000FFF74FBE0048704758000020014918207E
:10068000ABBEFEE7260002007047000080B586B0D2
:100690008DF817000491002003909DF817000128A1
:1006A00004DBFFE76FF0010003901CE09DF81700EA
:1006B00040F27032C2F2000201929421029110FBCA
:1006C000012000F0B7F8019A02999DF8170010FB7D
:1006D0000120049907F0F2F820B1FFE76FF0030062
:1006E0000390FFE7FFE7039806B080BD81B08DF867
:1006F000030001B07047000080B582B08DF807009C
:100700009DF8070000EB400140F20440C2F20000F7
:1007100000EB810000F002F902B080BD80B58AB024
:100720008DF827008DF82610FFE740F68C40C4F2C4
:100730000240016841F004010160006800F004001B
:1007400003900398FFE79DF8271041F2B220C0F60E
:10075000010030F8110004900220069007909DF8E7
:10076000260070B9FFE7002005909DF8271040F2A1
:100770000800C2F2000050F8210004A900F0EEF9D0
:100780004CE00020C1F2110005909DF8271040F2C6
:100790000800C2F2000050F8210004A900F0DEF9C0
:1007A0009DF8272002EB420140F20440C2F2000013
:1007B000009000EB810041F2AC21C0F6010151F83C
:1007C000221000F095F800989DF8272002EB4201D6
:1007D00000EB810040F20401C2F2000151F8222036
:1007E0000021019100F0E4F8019A9DF8273041F2D0
:1007F000B020C0F60100029030F9130040F2000171
:10080000C2F2000151F8231000F064FC02989DF838
:10081000271030F9110000F053FCFFE700200AB068
:1008200080BD000080B50020FFF760FF80BD0000A4
:10083000FFE7FEE780B58EB00D90FFE740F68C40F5
:10084000C4F20240016841F001010160006800F05B
:10085000010007900798FFE7FFE740F68C40C4F2DD
:100860000240016841F001010160006800F00100F0
:1008700006900698FFE7FFE740F69C40C4F202406E
:10088000016841F400310160006800F40030059017
:100890000598FFE7042008900220019009900B9032
:1008A00001200A90072002900C900020C4F2022040
:1008B000039008A9049100F051F9019B029A039852
:1008C00004994FF0080CCDF820C009930C9200F069
:1008D00045F90EB080BD00007047000080B50020D3
:1008E000FFF70AFF80BD000072B6FFE7FEE70000D9
:1008F00083B001900091019820B9FFE701208DF8A5
:100900000B0006E000980199086000208DF80B00AC
:10091000FFE79DF80B0003B07047000080B586B07C
:10092000059005980068C0F30040019005980068A4
:1009300000F01F01012088400290019942F20C0052
:10094000C4F2024000EB4110049004980068029940
:1009500008400390039860B1FFE70298049908608B
:100960000598406820B1FFE7059840688047FFE799
:10097000FFE7019942F21000C4F2024000EB41107F
:10098000049004980068029908400390039860B1AD
:10099000FFE70298049908600598806820B1FFE796
:1009A000059880688047FFE7FFE706B080BD00003C
:1009B00085B004908DF80F10029200208DF807008A
:1009C0009DF80F000146009140B1FFE70098012813
:1009D0000BD0FFE7009802280BD00EE00298049994
:1009E00048600298049988600BE002980499486076
:1009F00007E002980499886003E001208DF8070061
:100A0000FFE79DF8070005B07047000085B004902F
:100A1000039100200090FFE703980099C840002848
:100A200000F09980FFE70398009A01219140084067
:100A300001900198002800F08A80FFE7009820F0DC
:100A4000030042F26001C4F2024140580290009853
:100A500000F00300C1000F2000FA01F102980840E5
:100A60000290029804994FF60042CBF6FD521140D5
:100A7000890A009A02F00302D2009140884233D1E1
:100A8000FFE7019A42F28001C4F2024108689043F4
:100A90000860019A42F28401C4F20241086890435E
:100AA0000860019A42F20001C4F2024108689043D2
:100AB0000860019A42F20401C4F2024108689043BE
:100AC0000860009800F00300C1000F2088400290E9
:100AD000029B009820F0030142F26002C4F202423D
:100AE000885898438850FFE700984100032000FA97
:100AF00001F3049A116819431160DDF800C00CF08D
:100B000007018A000F2101FA02F304996FF0030232
:100B100002EA5C020A44116A994311620099490091
:100B200000FA01F3049A916899439160009A0121B7
:100B300001FA02F3049A51689943516000994900FF
:100B400000FA01F20499C8689043C860FFE7009872
:100B50000130009060E705B07047000085B0049058
:100B6000039100200090FFE7039800680099C840B7
:100B7000002800F06681FFE703980068009A0121D1
:100B80009140084001900198002800F05681FFE74D
:100B900003984068022805D0FFE7039840681228B0
:100BA00028D1FFE7049800996FF0030202EA51018F
:100BB0000844006A0290009800F0070081000F20AE
:100BC00000FA01F10298884302900398006900F04E
:100BD0000F00009901F00701890000FA01F1029865
:100BE0000843029002980499009B02EA53021144C0
:100BF0000862FFE704980068029000984100032013
:100C000000FA01F10298884302900398406800F0CE
:100C100003000099490000FA01F10298084302908C
:100C20000298049908600398406801280FD0FFE7F4
:100C30000398406802280AD0FFE70398406811280B
:100C400005D0FFE70398406812282FD1FFE70498EA
:100C50008068029000984100032000FA01F1029898
:100C6000884302900398C0680099490000FA01F196
:100C7000029808430290029804998860049840689A
:100C800002900099012000FA01F102988843029035
:100C900003984068C0F30010009900FA01F102982F
:100CA00008430290029804994860FFE7039840685F
:100CB00000F0030003280CD1FFE70398406800F020
:100CC000030003281DD1FFE703988068012818D08E
:100CD000FFE70498C068029000984100032000FAE2
:100CE00001F10298884302900398806800994900B6
:100CF00000FA01F102980843029002980499C86032
:100D0000FFE70398C079C006002840F19580FFE70F
:100D1000009820F0030042F26002C4F202428058C0
:100D20000290009800F00300C1000F2000FA01F1CA
:100D300002988843029004984FF60041CBF6FD518B
:100D40000840800A009901F00301C90000FA01F18E
:100D50000298084302900298009921F003018850FC
:100D600042F20000C4F20240006802900199029829
:100D70008843029003988079C006002805D5FFE7D4
:100D80000199029808430290FFE7029842F200019D
:100D9000C4F20241086042F20400C4F2024000685A
:100DA0000290019902988843029003988079800606
:100DB000002805D5FFE70199029808430290FFE754
:100DC000029842F20401C4F20241086042F2840037
:100DD000C4F2024000680290019902988843029090
:100DE000039880798007002805D5FFE701990298CC
:100DF00008430290FFE7029842F28401C4F20241E4
:100E0000086042F28000C4F202400068029001993A
:100E100002988843029003988079C00728B1FFE7C1
:100E20000199029808430290FFE7029842F280017C
:100E3000C4F202410860FFE7FFE70098013000902C
:100E400092E605B07047000082B00190ADF8021044
:100E500001980069BDF80210084204D0FFE70120A4
:100E60008DF8010003E000208DF80100FFE79DF8F8
:100E7000010002B07047000083B00290ADF8061088
:100E8000029840690090009ABDF8060002EA00014D
:100E9000904340EA01400299886103B07047000026
:100EA00082B00190ADF802108DF801209DF801008C
:100EB00028B1FFE7BDF802000199886104E0BDF8A0
:100EC000020001998862FFE702B0704740F2EC70BF
:100ED000C2F200000068704782B0019000208DF8D7
:100EE000030040F20040C4F203000068C00720B1D4
:100EF000FFE701208DF803000AE040F20041C4F250
:100F00000301086820F00400019A10430860FFE71D
:100F10009DF8030002B0704740F20041C4F20301A3
:100F2000086840F0010008600020704740F250005F
:100F3000C2F20000027840F2EC71C2F200010868CF
:100F4000104408607047000080B582B0032000F0B4
:100F5000D9F804F0E9FA40F62041C4F202410968E8
:100F600001F00F0241F29421C0F60101895CC840F2
:100F700040F21401C2F200010860042006F07EF97C
:100F80000F2000F011F820B1FFE701208DF80700D5
:100F900005E000F093F800208DF80700FFE79DF8CA
:100FA000070002B080BD000080B586B0049000202C
:100FB000039040F25000C2F20000007820B9FFE731
:100FC00001208DF8170075E04EF21000CEF20000FF
:100FD00000684007002812D5FFE740F21400C2F273
:100FE0000000006840F25001C2F200010A784FF49C
:100FF0007A71B1FBF2F1B0FBF1F0039040E006F042
:10100000B1F902900298019040B1FFE701980128E0
:1010100016D0FFE70198022821D02FE040F21400FB
:10102000C2F20000006840F25001C2F200010A78EA
:101030004FF4FA51B1FBF2F1B0FBF1F003901EE076
:1010400040F25000C2F2000001784FF47A70B0FB19
:10105000F1F14FF4FA40B0FBF1F003900FE040F2F1
:101060005000C2F2000001784FF47A70B0FBF1F149
:101070004FF40040B0FBF1F0039000E0FFE7FFE722
:10108000039806F049F920B1FFE701208DF8170019
:1010900010E004994FF0FF300022009200F01AF89F
:1010A0000098049940F25402C2F2000211608DF8D7
:1010B0001700FFE79DF8170006B080BD70470000DD
:1010C00080B582B0ADF80600BDF9060009F02EFC2F
:1010D00002B080BD80B586B0ADF8160004910392D1
:1010E00009F054FC0290BDF9160001900298049991
:1010F000039A07F011FA0146019809F04FFC06B077
:1011000080BD000080B582B00190019809F068FCB4
:1011100002B080BD82B001900198006800900199F2
:101120000120C1F8D8020199002081F8CC02009A70
:10113000516D41F001015165009A516D41F002017C
:10114000516502B07047000082B001908DF8031025
:1011500002B0704782B001908DF8031002B0704762
:1011600082B001908DF8031002B0704780B588B04E
:1011700007900691ADF81620BDF81600400400282F
:101180006BD5FFE7079800680699097807F004FD1A
:10119000ADF8140006988069BDF81410884207D392
:1011A000FFE7BDF8142006998869801A886103E07A
:1011B000069900208861FFE706988069E8B9FFE793
:1011C000FFE7079800680699097850F821004BF668
:1011D0008F71C0F2FF7108400490049880F40050B1
:1011E0000490049848F28001084307990968069A18
:1011F000127841F82200FFE7FFE7BDF8160040062D
:1012000000281BD5FFE7FFE7FFE70798006806996E
:10121000097850F8210048F68F71C0F2FF7108403C
:101220000390039848F2C001084307990968069A99
:10123000127841F82200FFE7FFE7FFE7BDF814004E
:1012400050B1FFE707980068069A51691289BDF806
:10125000143009F047FAFFE76AE00798006806993A
:10126000097807F0B3FCADF8140006988069BDF862
:101270001410884207D3FFE7BDF814200699886947
:10128000801A886103E0069900208861FFE70698CC
:101290008069E8B9FFE7FFE70798006806990978D1
:1012A00050F821004BF68F71C0F2FF710840029098
:1012B000029880F400500290029848F2800108439E
:1012C00007990968069A127841F82200FFE7FFE7BC
:1012D000BDF81600400600281BD4FFE7FFE7FFE734
:1012E000079800680699097850F8210048F68F7130
:1012F000C0F2FF7108400190019848F2C001084314
:1013000007990968069A127841F82200FFE7FFE77B
:10131000FFE7BDF8140050B1FFE707980068069A90
:1013200051695289BDF8143009F0DCF9FFE7FFE795
:10133000BDF8140008B080BD80B594B01290119132
:10134000ADF84220BDF842004006002840F1C181BE
:10135000FFE7129800681199097807F01DFCADF8B5
:101360003A0011988069BDF83A10884207D9FFE722
:10137000BDF83A2011998869801A886103E01199B3
:1013800000208861FFE711988069002840F0B9804B
:10139000FFE7FFE711984078B8B9FFE7FFE711983A
:1013A000027846F20041C4F2010151F8320020F007
:1013B0007C4041F832001198027851F8320040F038
:1013C000004041F83200FFE719E011984078012809
:1013D00014D1FFE7FFE71198027846F20041C4F20A
:1013E000010151F8320080B241F8320011980278C0
:1013F00051F8320041F83200FFE7FFE7FFE7FFE76F
:10140000FFE711984078B8B9FFE7FFE71198027835
:1014100046F20441C4F2010151F8320020F07C4050
:1014200041F832001198027851F8320040F0004043
:1014300041F83200FFE717E011984078012812D1F7
:10144000FFE71198027846F20441C4F2010151F815
:10145000320080B241F832001198027851F832001F
:1014600041F83200FFE7FFE7FFE71198C078022854
:101470001DD1FFE7FFE7129800681199097850F82D
:10148000210048F6BF71C0F2FF7108400B900B9825
:1014900080F020000B900B9848F2800108431299CD
:1014A0000968119A127841F82200FFE7FFE71298C5
:1014B00011990978FFF74EFEBDF84200400400285C
:1014C0001BD5FFE7FFE7FFE712980068119909783D
:1014D00050F8210048F68F71C0F2FF7108400A9061
:1014E0000A984CF28001084312990968119A1278FF
:1014F00041F82200FFE7FFE7FFE700208DF84F00EB
:10150000C9E2BDF84200400400281BD5FFE7FFE711
:10151000FFE7129800681199097850F8210048F601
:101520008F71C0F2FF710840099009984CF2800158
:10153000084312990968119A127841F82200FFE7CE
:10154000FFE7FFE7119890F82400012840F0BF80E2
:10155000FFE7BDF83A201199486910444861BDF889
:101560003A201199C8691044C86111980169006A4C
:10157000884209D3FFE7119800690F900F9A1199DB
:10158000086A801A086216E01198006A40B9FFE7FD
:10159000BDF83A000F901199002081F8240009E06D
:1015A0001199002081F824001199096A0F9111996D
:1015B0000862FFE7FFE7FFE71198407800285ED157
:1015C000FFE7FFE71198027846F20041C4F20101FB
:1015D00051F8320020F07C4041F832000F9868B991
:1015E000FFE71198027846F20041C4F2010151F878
:1015F000320040F0004041F832003EE00F983E28B3
:101600001CD8FFE7FFE70F98400808909DF83C00C2
:10161000C00720B1FFE7089801300890FFE7089B5A
:101620001198027846F20041C4F2010151F83200EB
:1016300040EA836041F83200FFE71DE0FFE70F98C2
:10164000400908909DF83C00C00620B9FFE70898C3
:1016500001380890FFE7089B1198027846F2004194
:10166000C4F2010151F8320040EA836040F00040CA
:1016700041F83200FFE7FFE7FFE7FFE71CE01198C2
:101680004078012817D1FFE7FFE71198027846F26A
:101690000041C4F2010151F8320080B241F8320039
:1016A0000F9B1198027851F8320040EA034041F84C
:1016B0003200FFE7FFE7FFE7FFE712980068119AA3
:1016C00051691289BDF83C3009F0A8F8FFE7FFE73F
:1016D000BDE1129800681199097807F077FAADF822
:1016E0003A0011988069BDF83A10884207D3FFE7A5
:1016F000BDF83A2011998869801A886103E0119930
:1017000000208861FFE711988069002840F0B980C7
:10171000FFE7FFE711984078B8B9FFE7FFE71198B6
:10172000027846F20041C4F2010151F8320020F083
:101730007C4041F832001198027851F8320040F0B4
:10174000004041F83200FFE719E011984078012885
:1017500014D1FFE7FFE71198027846F20041C4F286
:10176000010151F8320080B241F83200119802783C
:1017700051F8320041F83200FFE7FFE7FFE7FFE7EB
:10178000FFE711984078B8B9FFE7FFE711980278B2
:1017900046F20441C4F2010151F8320020F07C40CD
:1017A00041F832001198027851F8320040F00040C0
:1017B00041F83200FFE717E011984078012812D174
:1017C000FFE71198027846F20441C4F2010151F892
:1017D000320080B241F832001198027851F832009C
:1017E00041F83200FFE7FFE7FFE71198C0780228D1
:1017F0001DD1FFE7FFE7129800681199097850F8AA
:10180000210048F6BF71C0F2FF71084005900598AD
:1018100080F020000590059848F280010843129955
:101820000968119A127841F82200FFE7FFE7129841
:1018300011990978FFF78EFCBDF84200400400289A
:101840001BD4FFE7FFE7FFE71298006811990978BA
:1018500050F8210048F68F71C0F2FF7108400490E3
:1018600004984CF28001084312990968119A127881
:1018700041F82200FFE7FFE7FFE700208DF84F0067
:1018800009E1BDF84200400400281BD4FFE7FFE750
:10189000FFE7129800681199097850F8210048F67E
:1018A0008F71C0F2FF710840039003984CF28001E1
:1018B000084312990968119A127841F82200FFE74B
:1018C000FFE7FFE7119890F82400012840F0BD8061
:1018D000FFE7BDF83A201199486910444861BDF806
:1018E0003A201199C8691044C86111980169006AC9
:1018F000884209D3FFE7119800690F900F9A119958
:10190000086A801A086216E01198006A40B9FFE779
:10191000BDF83A000F901199002081F8240009E0E9
:101920001198006A0F90119900200862119981F8AE
:101930002400FFE7FFE7FFE71198407800285ED119
:10194000FFE7FFE71198027846F20441C4F2010173
:1019500051F8320020F07C4041F832000F9868B90D
:10196000FFE71198027846F20441C4F2010151F8F0
:10197000320040F0004041F832003EE00F983E282F
:101980001CD8FFE7FFE70F98400802909DF83C0045
:10199000C00720B1FFE7029801300290FFE7029BE9
:1019A0001198027846F20441C4F2010151F8320064
:1019B00040EA836041F83200FFE71DE0FFE70F983F
:1019C000400902909DF83C00C00620B9FFE702984C
:1019D00001380290FFE7029B1198027846F2044119
:1019E000C4F2010151F8320040EA836040F0004047
:1019F00041F83200FFE7FFE7FFE7FFE71AE0119841
:101A00004078012815D1FFE71198027846F2044189
:101A1000C4F2010151F8320080B241F832000F9B4C
:101A20001198027851F8320040EA034041F8320040
:101A3000FFE7FFE7FFE712980068119A51695289A2
:101A4000BDF83C3008F0EAFEFFE7FFE7FFE7FFE7FD
:101A5000129800681199097850F8210048F6BF7172
:101A6000C0F2FF7108400190019880F010000190D1
:101A7000019880F020000190019848F2800108430D
:101A800012990968119A127841F82200FFE70020A4
:101A90008DF84F00FFE79DF84F0014B080BD0000A7
:101AA00080B582B001900198006808F013FE0090A4
:101AB0009DF801000006002804D5FFE7019806F014
:101AC00061FDCAE09DF80100400700280FD5FFE73F
:101AD00001980168486C4FF6FF3210404864019845
:101AE00000F010FA0198002100F018FAB5E09DF816
:101AF00001004006002808D5FFE701980168486CFE
:101B00004BF6FF7210404864A7E09DF80100800684
:101B1000002808D5FFE701980168486C4DF6FF7270
:101B20001040486499E09DF80100C006002825D5C2
:101B3000FFE701980168086C20F004000864019830
:101B40000168086C20F008000864019890F8CC0245
:101B5000012808D1FFE70198002180F8CC120198F4
:101B6000FFF7F2FAFFE7019800F0D0F90198016859
:101B7000486C4EF6FF72104048646EE09DF801001C
:101B80000007002817D5FFE701980168086C40F0AE
:101B90000800086401980168486C4FF2FF72104019
:101BA000486401980168086C40F0040008640198DA
:101BB00000F0E6F951E09DF80000000600282ED55F
:101BC000FFE701980168486C4FF67F721040486447
:101BD000019890F8CC02E8B9FFE701980168086C19
:101BE00040F00400086401980168086C40F00800A7
:101BF00008640198012180F8CC1201980068406DBA
:101C000000F0F0008008019AC2F8D0020198FFF7B6
:101C10009BFA03E0019800F0B3F9FFE71DE09DF89F
:101C20000100800700280BD5FFE701980168486C88
:101C30004FF6FF5210404864019800F06BF90CE039
:101C40009DF80100C00740B1FFE701980168486CAA
:101C50004FF6FF6210404864FFE702B080BD00000D
:101C600080B58CB00A900A9820B9FFE701208DF862
:101C70002F0006E10A9890F8950240B9FFE70A990B
:101C8000002081F894020A9800F000F9FFE70A9911
:101C9000032081F895020A98006807F0E3FF0A9B89
:101CA0001868197C8DF8201059689A68DB680793CA
:101CB000069205910599069A079BDDF820C0EE462D
:101CC000CEF800C007F050FF40B1FFE70A990220AC
:101CD00081F8950201208DF82F00D2E00A98006863
:101CE000002108F065FD40B1FFE70A99022081F864
:101CF000950201208DF82F00C3E000208DF8270009
:101D0000FFE79DF827000A990979884239DAFFE749
:101D10000A989DF8271001EB810100EBC101012019
:101D200048759DF827000A9900EB800201EBC2017B
:101D300008750A989DF8271001EB810100EBC1019D
:101D40000020C8750A999DF8272002EB820201EB5A
:101D5000C20148620A999DF8272002EB820201EB3A
:101D6000C20188620A999DF8272002EB820201EBEA
:101D7000C201C862FFE79DF8270001308DF82700F7
:101D8000BFE700208DF82700FFE79DF827000A999C
:101D9000097988423EDAFFE70A989DF8271001EB9F
:101DA000810100EBC101002081F855019DF8271049
:101DB0000A9A01EB810302EBC30282F854110A99DB
:101DC0009DF8272002EB820201EBC20181F8570146
:101DD0000A999DF8272002EB820201EBC201C1F8AB
:101DE00064010A999DF8272002EB820201EBC201EF
:101DF000C1F868010A999DF8272002EB820201EBE5
:101E0000C201C1F86C01FFE79DF8270001308DF891
:101E10002700BAE70A9B1868197C8DF810105968DA
:101E20009A68DB680393029201910199029A039BDD
:101E3000DDF810C0EE46CEF800C007F0E7FE40B176
:101E4000FFE70A99022081F8950201208DF82F0002
:101E500017E00A99002048740A99012081F8950238
:101E60000A98007B012804D1FFE70A98FFF752F98E
:101E7000FFE70A98006807F0BFFE00208DF82F00EA
:101E8000FFE79DF82F000CB080BD000080B5B8B012
:101E9000379002A8D021FEF763FB3798006846F21E
:101EA0000001C4F20101884229D1FFE7102003900C
:101EB000002002903020339002A802F0C5F818B13B
:101EC000FFE7FEF711FDFFE700F05EF8FFE740F6E1
:101ED000A440C4F20240016841F0807101600068D2
:101EE00000F0807001900198FFE74A2000900022E6
:101EF0001146FFF7EFF80098FFF7E2F8FFE738B078
:101F000080BD000081B0009001B0704781B00090AA
:101F100001B0704781B0009001B0704780B584B0C7
:101F200002908DF80710FFE7029890F894020128BC
:101F300004D1FFE702208DF80F0019E0029901207B
:101F400081F89402FFE7FFE79DF8070002994874C3
:101F5000029800689DF8071008F050FCFFE702990E
:101F6000002081F89402FFE700208DF80F00FFE7C2
:101F70009DF80F0004B080BD81B0009001B07047A3
:101F800081B0009001B0704740F63801C4F20241C0
:101F9000086840F0007008607047000089B0089041
:101FA00040F63440C4F2024000686FF35F200590B1
:101FB00040F62840C4F20240016801F00301079195
:101FC0000168C1F3052106910068C0F30010049078
:101FD000049840F63841C4F20241096889B2C90840
:101FE00000FB01F000EE100AB8EE400A8DED020A87
:101FF0000698002800F03D81FFE70798009001282F
:1020000008D0FFE70098022830D0FFE700980328A7
:1020100049D065E040F60040C4F202400068C0F3D9
:10202000C10149F20000C0F2D030C84003909DEDDC
:10203000030AB8EE400A9DED061AB8EE411A80EE8A
:10204000010A9DED051AB8EE411A9DED022A9FED99
:102050008F3A82EE032A31EE021AB7EE002A31EEF1
:10206000021A20EE010A8DED010A65E09DED060AD7
:10207000B8EE401A9FED860A80EE010A9DED051A22
:10208000B8EE411A9DED022A9FED803A82EE032AB6
:1020900031EE021AB7EE002A31EE021A20EE010AE2
:1020A0008DED010A48E09DED060AB8EE401A9FED5D
:1020B000760A80EE010A9DED051AB8EE411A9DEDF3
:1020C000022A9FED723A82EE032A31EE021AB7EE2F
:1020D000002A31EE021A20EE010A8DED010A2BE0F2
:1020E00040F60040C4F202400068C0F3C10149F26A
:1020F0000000C0F2D030C84003909DED030AB8EE56
:10210000400A9DED061AB8EE411A80EE010A9DEDD7
:10211000051AB8EE411A9DED022A9FED5C3A82EE57
:10212000032A31EE021AB7EE002A31EE021A20EE2F
:10213000010A8DED010AFFE740F60040C4F20240BB
:1021400000688001002827D5FFE740F62840C4F248
:1021500002400068C003002819D5FFE79DED010A81
:1021600040F63440C4F20240006880B2400A01EEFA
:10217000100AB8EE411AB7EE002A31EE021A80EECC
:10218000010A0898BCEEC00A80ED000A03E0089935
:1021900000200860FFE703E0089900200860FFE7DF
:1021A00040F60040C4F2024000688001002827D5B4
:1021B000FFE740F62840C4F2024000688003002890
:1021C00019D5FFE79DED010A40F63440C4F2024004
:1021D0000068C0F3064001EE100AB8EE411AB7EEEF
:1021E000002A31EE021A80EE010A0898BCEEC00AFD
:1021F00080ED010A03E0089900204860FFE703E052
:10220000089900204860FFE740F60040C4F2024011
:1022100000688001002827D5FFE740F62840C4F277
:10222000024000684003002819D5FFE79DED010A30
:1022300040F63440C4F202400068C0F3066001EE8C
:10224000100AB8EE411AB7EE002A31EE021A80EEFB
:10225000010A0898BCEEC00A80ED020A03E0089962
:1022600000208860FFE703E0089900208860FFE70E
:1022700007E008990020086008994860089988607C
:10228000FFE709B0704700BF20BCBE4B000000460E
:102290000024744A89B0089040F63C40C4F20240E1
:1022A00000686FF35F20059040F62C40C4F20240B6
:1022B000016801F0030107910168C1F3052106914E
:1022C0000068C0F300100490049840F64041C4F246
:1022D0000241096889B2C90800FB01F000EE100A4A
:1022E000B8EE400A8DED020A0698002800F03D8104
:1022F000FFE707980090012808D0FFE70098022820
:1023000030D0FFE70098032849D065E040F6004050
:10231000C4F202400068C0F3C10149F20000C0F2FB
:10232000D030C84003909DED030AB8EE400A9DED01
:10233000061AB8EE411A80EE010A9DED051AB8EEB4
:10234000411A9DED022A9FED8F3A82EE032A31EE6B
:10235000021AB7EE002A31EE021A20EE010A8DEDC4
:10236000010A65E09DED060AB8EE401A9FED860A67
:1023700080EE010A9DED051AB8EE411A9DED022A84
:102380009FED803A82EE032A31EE021AB7EE002A60
:1023900031EE021A20EE010A8DED010A48E09DEDB2
:1023A000060AB8EE401A9FED760A80EE010A9DED0E
:1023B000051AB8EE411A9DED022A9FED723A82EE9F
:1023C000032A31EE021AB7EE002A31EE021A20EE8D
:1023D000010A8DED010A2BE040F60040C4F20240F4
:1023E0000068C0F3C10149F20000C0F2D030C8401B
:1023F00003909DED030AB8EE400A9DED061AB8EE73
:10240000411A80EE010A9DED051AB8EE411A9DEDC4
:10241000022A9FED5C3A82EE032A31EE021AB7EEF1
:10242000002A31EE021A20EE010A8DED010AFFE7C3
:1024300040F60040C4F2024000680001002827D5A1
:10244000FFE740F62C40C4F202400068C0030028B9
:1024500019D5FFE79DED010A40F63C40C4F2024069
:10246000006880B2400A01EE100AB8EE411AB7EED9
:10247000002A31EE021A80EE010A0898BCEEC00A6A
:1024800080ED000A03E0089900200860FFE703E000
:10249000089900200860FFE740F60040C4F20240BF
:1024A00000680001002827D5FFE740F62C40C4F261
:1024B000024000688003002819D5FFE79DED010A5E
:1024C00040F63C40C4F202400068C0F3064001EE12
:1024D000100AB8EE411AB7EE002A31EE021A80EE69
:1024E000010A0898BCEEC00A80ED010A03E00899D1
:1024F00000204860FFE703E0089900204860FFE7FC
:1025000040F60040C4F2024000680001002827D5D0
:10251000FFE740F62C40C4F2024000684003002868
:1025200019D5FFE79DED010A40F63C40C4F2024098
:102530000068C0F3066001EE100AB8EE411AB7EE6B
:10254000002A31EE021A80EE010A0898BCEEC00A99
:1025500080ED020A03E0089900208860FFE703E0AD
:10256000089900208860FFE707E0089900200860CC
:102570000899486008998860FFE709B0704700BF74
:1025800020BCBE4B000000460024744A89B008906D
:1025900040F64440C4F2024000686FF35F200590AB
:1025A00040F63040C4F20240016801F00301079197
:1025B0000168C1F3052106910068C0F30010049082
:1025C000049840F64841C4F20241096889B2C9083A
:1025D00000FB01F000EE100AB8EE400A8DED020A91
:1025E0000698002800F03D81FFE707980090012839
:1025F00008D0FFE70098022830D0FFE700980328B2
:1026000049D065E040F60040C4F202400068C0F3E3
:10261000C10149F20000C0F2D030C84003909DEDE6
:10262000030AB8EE400A9DED061AB8EE411A80EE94
:10263000010A9DED051AB8EE411A9DED022A9FEDA3
:102640008F3A82EE032A31EE021AB7EE002A31EEFB
:10265000021A20EE010A8DED010A65E09DED060AE1
:10266000B8EE401A9FED860A80EE010A9DED051A2C
:10267000B8EE411A9DED022A9FED803A82EE032AC0
:1026800031EE021AB7EE002A31EE021A20EE010AEC
:102690008DED010A48E09DED060AB8EE401A9FED67
:1026A000760A80EE010A9DED051AB8EE411A9DEDFD
:1026B000022A9FED723A82EE032A31EE021AB7EE39
:1026C000002A31EE021A20EE010A8DED010A2BE0FC
:1026D00040F60040C4F202400068C0F3C10149F274
:1026E0000000C0F2D030C84003909DED030AB8EE60
:1026F000400A9DED061AB8EE411A80EE010A9DEDE2
:10270000051AB8EE411A9DED022A9FED5C3A82EE61
:10271000032A31EE021AB7EE002A31EE021A20EE39
:10272000010A8DED010AFFE740F60040C4F20240C5
:1027300000688000002827D5FFE740F63040C4F24B
:1027400002400068C003002819D5FFE79DED010A8B
:1027500040F64440C4F20240006880B2400A01EEF4
:10276000100AB8EE411AB7EE002A31EE021A80EED6
:10277000010A0898BCEEC00A80ED000A03E008993F
:1027800000200860FFE703E0089900200860FFE7E9
:1027900040F60040C4F2024000688000002827D5BF
:1027A000FFE740F63040C4F2024000688003002892
:1027B00019D5FFE79DED010A40F64440C4F20240FE
:1027C0000068C0F3064001EE100AB8EE411AB7EEF9
:1027D000002A31EE021A80EE010A0898BCEEC00A07
:1027E00080ED010A03E0089900204860FFE703E05C
:1027F000089900204860FFE740F60040C4F202401C
:1028000000688000002827D5FFE740F63040C4F27A
:10281000024000684003002819D5FFE79DED010A3A
:1028200040F64440C4F202400068C0F3066001EE86
:10283000100AB8EE411AB7EE002A31EE021A80EE05
:10284000010A0898BCEEC00A80ED020A03E008996C
:1028500000208860FFE703E0089900208860FFE718
:1028600007E0089900200860089948600899886086
:10287000FFE709B0704700BF20BCBE4B0000004618
:102880000024744A80B596B0159114901498159947
:1028900080F00070084300285BD1FFE740F6F0406D
:1028A000C4F20240016801F4407108910068800799
:1028B000002809D5FFE70898B0F5807F04D1FFE72D
:1028C0004FF400400A9042E040F6F040C4F202406B
:1028D00000680001002809D5FFE70898B0F5007FDF
:1028E00004D1FFE74FF4FA400A902FE040F6004091
:1028F000C4F2024000688003002823D5FFE708984F
:10290000B0F5407F1ED1FFE740F61C40C4F2024004
:10291000006800F47C50B0F5007F0FD3FFE740F66D
:102920001C40C4F202400068C0F3052147F6400095
:10293000C0F27D10B0FBF1F00A9002E000200A9096
:10294000FFE702E000200A90FFE7FFE7FFE701F062
:1029500077BB149806901599079180F00100084301
:10296000002800F00381FFE70799069880F0020035
:102970000843002800F07881FFE70799069880F067
:1029800004000843002800F0E481FFE70799069857
:1029900080F008000843002800F05B82FFE70799F9
:1029A000069880F010000843002800F0D582FFE769
:1029B0000799069880F020000843002800F04F8314
:1029C000FFE70799069880F480500843002800F03C
:1029D000C983FFE70799069880F400500843002850
:1029E00000F0CC84FFE70799069880F48040084304
:1029F000002800F01585FFE70799069880F400404D
:102A00000843002800F05E85FFE70799069880F4E8
:102A100080300843002800F0A785FFE70799069853
:102A200080F400300843002800F01886FFE707997B
:102A3000069880F480200843002800F0BB86FFE75A
:102A40000799069880F400100843002800F0FB83E3
:102A5000FFE70799069880F480000843002864D0B7
:102A6000FFE70799069880F080600843002801F08E
:102A70004F82FFE70799069880F00060084300281E
:102A800000F07987FFE70799069880F080500843A7
:102A9000002800F0EE87FFE70799069880F00050C5
:102AA0000843002801F07280FFE70799069880F03C
:102AB00080400843002801F0F280FFE7069807995C
:102AC00081F002010843002801F06D81FFE70698BC
:102AD000079981F004010843002800F01687FFE7FA
:102AE0000698079981F008010843002801F0D08179
:102AF000FFE70698079981F010010843002801F0CC
:102B00005D82FFE70698079981F400710843002869
:102B100000F00584FFE70698079981F48051084387
:102B2000002800F05E8501F087BA40F6E440C4F268
:102B30000240006800F040000890089830B9FFE7B4
:102B400011A8FFF72BFA12980A900DE00898402878
:102B500006D1FFE70EA8FFF79DFB10980A9002E050
:102B600000200A90FFE7FFE701F069BA40F6D8407D
:102B7000C4F20240006800F007000890089820B9ED
:102B8000FFE702F0A9FC0A906CE040F60040C4F2B6
:102B900002400068000100280AD5FFE708980128D4
:102BA00006D1FFE70EA8FFF775FB0F980A9058E0D3
:102BB00040F60040C4F202400068800000280AD5B8
:102BC000FFE70898022806D1FFE70BA8FFF7DEFC15
:102BD0000C980A9044E040F60040C4F202400068BD
:102BE0008007002812D5FFE7089803280ED1FFE7D9
:102BF00040F60040C4F202400068C0F3C10149F24F
:102C00000000C0F2D030C8400A9028E040F60040F2
:102C1000C4F202400068800500280AD5FFE7089842
:102C2000042806D1FFE740F60010C0F23D000A90EC
:102C300014E040F6F040C4F202400068800700282B
:102C400008D5FFE70898052804D1FFE74FF40040B6
:102C50000A9002E000200A90FFE7FFE7FFE7FFE7A6
:102C6000FFE7FFE701F0EBB940F6D840C4F20240BD
:102C7000006800F038000890089820B9FFE702F0DB
:102C800017FC0A9063E040F60040C4F2024000687E
:102C9000000100280AD5FFE70898082806D1FFE7B9
:102CA0000EA8FFF7F7FA0F980A904FE0089810283F
:102CB00006D1FFE70BA8FFF769FC0C980A9044E0E7
:102CC00040F60040C4F2024000688007002812D598
:102CD000FFE7089818280ED1FFE740F60040C4F23D
:102CE00002400068C0F3C10149F20000C0F2D030D8
:102CF000C8400A9028E040F60040C4F20240006854
:102D0000800500280AD5FFE70898202806D1FFE7AC
:102D100040F60010C0F23D000A9014E040F6F0408A
:102D2000C4F2024000688007002808D5FFE7089831
:102D3000282804D1FFE74FF400400A9002E0002069
:102D40000A90FFE7FFE7FFE7FFE7FFE7FFE701F094
:102D500076B940F6D840C4F20240006800F4E07052
:102D60000890089820B9FFE702F0A2FB0A906EE0F5
:102D700040F60040C4F202400068000100280AD575
:102D8000FFE70898402806D1FFE70EA8FFF782FA70
:102D90000F980A905AE040F60040C4F202400068E2
:102DA000800000280AD5FFE70898802806D1FFE7B1
:102DB0000BA8FFF7EBFB0C980A9046E040F60040AA
:102DC000C4F2024000688007002812D5FFE7089887
:102DD000C0280ED1FFE740F60040C4F20240006870
:102DE000C0F3C10149F20000C0F2D030C8400A90DF
:102DF0002AE040F60040C4F2024000688005002846
:102E00000BD5FFE70898B0F5807F06D1FFE740F6C5
:102E10000010C0F23D000A9015E040F6F040C4F208
:102E2000024000688007002809D5FFE70898B0F540
:102E3000A07F04D1FFE74FF400400A9002E0002099
:102E40000A90FFE7FFE7FFE7FFE7FFE7FFE701F093
:102E5000F6B840F6D840C4F20240006800F4606062
:102E60000890089820B9FFE702F022FB0A9071E071
:102E700040F60040C4F202400068000100280BD573
:102E8000FFE70898B0F5007F06D1FFE70EA8FFF72F
:102E900001FA0F980A905CE040F60040C4F202404C
:102EA0000068800000280BD5FFE70898B0F5806F18
:102EB00006D1FFE70BA8FFF769FB0C980A9047E0E3
:102EC00040F60040C4F2024000688007002813D595
:102ED000FFE70898B0F5C06F0ED1FFE740F600405D
:102EE000C4F202400068C0F3C10149F20000C0F220
:102EF000D030C8400A902AE040F60040C4F20240B8
:102F00000068800500280BD5FFE70898B0F5006F32
:102F100006D1FFE740F60010C0F23D000A9015E030
:102F200040F6F040C4F2024000688007002809D54E
:102F3000FFE70898B0F5206F04D1FFE74FF4004099
:102F40000A9002E000200A90FFE7FFE7FFE7FFE7B3
:102F5000FFE7FFE701F073B840F6D840C4F2024043
:102F6000006800F4E0400890089820B9FFE702F0FC
:102F70009FFA0A9071E040F60040C4F202400068F7
:102F8000000100280BD5FFE70898B0F5805F06D157
:102F9000FFE70EA8FFF77EF90F980A905CE040F675
:102FA0000040C4F202400068800000280BD5FFE713
:102FB0000898B0F5005F06D1FFE70BA8FFF7E6FA27
:102FC0000C980A9047E040F60040C4F202400068C6
:102FD0008007002813D5FFE70898B0F5405F0ED1B1
:102FE000FFE740F60040C4F202400068C0F3C101B0
:102FF00049F20000C0F2D030C8400A902AE040F602
:103000000040C4F202400068800500280BD5FFE7AD
:103010000898B0F5804F06D1FFE740F60010C0F2E7
:103020003D000A9015E040F6F040C4F2024000680E
:103030008007002809D5FFE70898B0F5A04F04D114
:10304000FFE74FF400400A9002E000200A90FFE7FB
:10305000FFE7FFE7FFE7FFE7FFE700F0F0BF40F61D
:10306000D840C4F20240006800F46030089008982C
:1030700020B9FFE702F01CFA0A9071E040F6004028
:10308000C4F202400068000100280BD5FFE7089851
:10309000B0F5004F06D1FFE70EA8FFF7FBF80F9839
:1030A0000A905CE040F60040C4F2024000688000F4
:1030B00000280BD5FFE70898B0F5803F06D1FFE761
:1030C0000BA8FFF763FA0C980A9047E040F600401F
:1030D000C4F2024000688007002813D5FFE7089873
:1030E000B0F5C03F0ED1FFE740F60040C4F2024009
:1030F0000068C0F3C10149F20000C0F2D030C840FE
:103100000A902AE040F60040C4F2024000688005C0
:1031100000280BD5FFE70898B0F5003F06D1FFE780
:1031200040F60010C0F23D000A9015E040F6F04075
:10313000C4F2024000688007002809D5FFE708981C
:10314000B0F5203F04D1FFE74FF400400A9002E0C1
:1031500000200A90FFE7FFE7FFE7FFE7FFE7FFE751
:1031600000F06DBF40F6E040C4F20240006800F09D
:10317000E0600890089820B9FFE702F0C1F90A90D2
:103180005FE00898B0F1807F06D1FFE70EA8FFF757
:1031900081F80F980A9053E00898B0F1007F06D1AB
:1031A000FFE70BA8FFF7F2F90C980A9047E040F60A
:1031B0000040C4F2024000688007002813D5FFE7F2
:1031C0000898B0F1407F0ED1FFE740F60040C4F20E
:1031D00002400068C0F3C10149F20000C0F2D030E3
:1031E000C8400A902AE040F60040C4F2024000685D
:1031F000800500280BD5FFE70898B0F1806F06D155
:10320000FFE740F60010C0F23D000A9015E040F6DE
:10321000F040C4F2024000688007002809D5FFE7AB
:103220000898B0F1A06F04D1FFE74FF400400A9076
:1032300002E000200A90FFE7FFE7FFE7FFE7FFE774
:10324000FFE700F0FCBE40F6E840C4F20240006830
:1032500000F007000890089820B9FFE702F00EF987
:103260000A905AE00898012804D1FFE702F05CF9BF
:103270000A9051E00898022806D1FFE70EA8FFF750
:1032800009F810980A9046E040F60040C4F2024067
:103290000068800300280AD5FFE70898032806D1B4
:1032A000FFE747F64000C0F27D100A9032E040F69A
:1032B0000040C4F2024000688007002812D5FFE7F2
:1032C000089804280ED1FFE740F60040C4F20240FF
:1032D0000068C0F3C10149F20000C0F2D030C8401C
:1032E0000A9016E040F60040C4F2024000688005F3
:1032F00000280AD5FFE70898052806D1FFE740F621
:103300000010C0F23D000A9002E000200A90FFE7A2
:10331000FFE7FFE7FFE7FFE7FFE700F090BE40F6BB
:10332000E840C4F20240006800F00800089040F64F
:10333000F040C4F2024000688007002807D5FFE78C
:10334000089820B9FFE74FF400400A9014E040F6D7
:10335000F040C4F2024000680001002808D5FFE7F1
:103360000898082804D1FFE74FF4FA400A9002E0D9
:1033700000200A90FFE7FFE700F061BE40F6E4405E
:10338000C4F20240006800F440300890089820B968
:10339000FFE702F08DF80A9040E00898B0F5803F12
:1033A00006D1FFE70BA8FFF7F1F80D980A9034E07B
:1033B00040F60040C4F2024000688007002813D5A0
:1033C000FFE70898B0F5003F0ED1FFE740F6004058
:1033D000C4F202400068C0F3C10149F20000C0F22B
:1033E000D030C8400A9017E040F60040C4F20240D6
:1033F0000068800500280BD5FFE70898B0F5403F2E
:1034000006D1FFE740F60010C0F23D000A9002E04E
:1034100000200A90FFE7FFE7FFE7FFE700F00FBE9D
:1034200040F6E440C4F20240006800F440200890F6
:10343000089820B9FFE702F03BF80A9040E00898AE
:10344000B0F5802F06D1FFE70BA8FFF79FF80D9886
:103450000A9034E040F60040C4F202400068800761
:10346000002813D5FFE70898B0F5002F0ED1FFE72D
:1034700040F60040C4F202400068C0F3C10149F2C6
:103480000000C0F2D030C8400A9017E040F600407B
:10349000C4F202400068800500280BD5FFE70898B9
:1034A000B0F5402F06D1FFE740F60010C0F23D0016
:1034B0000A9002E000200A90FFE7FFE7FFE7FFE73E
:1034C00000F0BDBD40F6E440C4F20240006800F4E4
:1034D00040100890089820B9FFE702F011F80A9010
:1034E00040E00898B0F5801F06D1FFE70BA8FFF772
:1034F0004DF80D980A9034E040F60040C4F20240C6
:1035000000688007002813D5FFE70898B0F5001F72
:103510000ED1FFE740F60040C4F202400068C0F35D
:10352000C10149F20000C0F2D030C8400A9017E053
:1035300040F60040C4F202400068800500280BD528
:10354000FFE70898B0F5401F06D1FFE740F60010EE
:10355000C0F23D000A9002E000200A90FFE7FFE77A
:10356000FFE7FFE700F06BBD40F6E440C4F2024025
:10357000006800F040700890089820B9FFE701F05B
:1035800097FF0A902BE00898B0F1807F06D1FFE703
:103590000BA8FEF7FBFF0D980A901FE040F60040D5
:1035A000C4F2024000688007002813D5FFE708989E
:1035B000B0F1007F0ED1FFE740F60040C4F20240B8
:1035C0000068C0F3C10149F20000C0F2D030C84029
:1035D0000A9002E000200A90FFE7FFE7FFE700F013
:1035E0002EBD40F6E440C4F20240006800F04060A6
:1035F0000890089820B9FFE701F082FF0A902BE0BD
:103600000898B0F1806F06D1FFE70BA8FEF7BEFF68
:103610000D980A901FE040F60040C4F20240006896
:103620008007002813D5FFE70898B0F1006F0ED18E
:10363000FFE740F60040C4F202400068C0F3C10159
:1036400049F20000C0F2D030C8400A9002E00020E9
:103650000A90FFE7FFE7FFE700F0F1BC40F6DC402F
:10366000C4F20240006800F4E060089008980590F9
:10367000C8B1FFE70598B0F5807F18D0FFE705983F
:10368000B0F5007F19D0FFE70598B0F5407F1AD05C
:10369000FFE70598B0F5806F26D0FFE70598B0F5F5
:1036A000A06F32D081E001F02BFF0A9080E00EA8DD
:1036B000FEF7F0FD0E980A907AE00BA8FEF766FF81
:1036C0000D980A9074E040F6F040C4F202400068A1
:1036D0008007002804D5FFE74FF400400A9002E07D
:1036E00000200A90FFE763E040F6F040C4F2024099
:1036F00000680001002804D5FFE74FF4FA400A9063
:1037000002E000200A90FFE752E040F6E840C4F2F1
:103710000240006800F04040099040F60040C4F2CA
:10372000024000688007002811D5FFE7099870B9AA
:10373000FFE740F60040C4F202400068C0F3C10158
:1037400049F20000C0F2D030C8400A902CE040F6A8
:103750000040C4F202400068800500280BD5FFE756
:103760000998B0F1804F06D1FFE740F60010C0F293
:103770003D000A9017E040F60040C4F202400068A5
:10378000800300280BD5FFE70998B0F1004F06D160
:10379000FFE747F64000C0F27D100A9002E00020EB
:1037A0000A90FFE7FFE7FFE702E000200A90FFE74B
:1037B00000F045BC40F6DC40C4F20240006800F472
:1037C000E040089008980490C8B1FFE70498B0F56D
:1037D000805F18D0FFE70498B0F5005F19D0FFE7CD
:1037E0000498B0F5405F1AD0FFE70498B0F5804F19
:1037F00026D0FFE70498B0F5A04F32D081E001F069
:1038000057FE0A9080E00EA8FEF744FD0E980A903D
:103810007AE00BA8FEF7BAFE0D980A9074E040F625
:10382000F040C4F2024000688007002804D5FFE79A
:103830004FF400400A9002E000200A90FFE763E0A6
:1038400040F6F040C4F2024000680001002804D5B0
:10385000FFE74FF4FA400A9002E000200A90FFE7E9
:1038600052E040F6E840C4F20240006800F04040F8
:10387000099040F60040C4F202400068800700282A
:1038800011D5FFE7099870B9FFE740F60040C4F290
:1038900002400068C0F3C10149F20000C0F2D0301C
:1038A000C8400A902CE040F60040C4F20240006894
:1038B000800500280BD5FFE70998B0F1804F06D1AD
:1038C000FFE740F60010C0F23D000A9017E040F616
:1038D0000040C4F202400068800300280BD5FFE7D7
:1038E0000998B0F1004F06D1FFE747F64000C0F25B
:1038F0007D100A9002E000200A90FFE7FFE7FFE753
:1039000002E000200A90FFE799E340F6E840C4F2A5
:103910000240006800F44070089040F60040C4F295
:10392000024000688003002809D5FFE7089830B9F5
:10393000FFE747F64000C0F27D100A901AE00898B1
:10394000B0F5807F06D1FFE711A8FEF727FB12989C
:103950000A900EE00898B0F5007F06D1FFE70EA8A8
:10396000FEF798FC0F980A9002E000200A90FFE70B
:10397000FFE7FFE763E340F6E040C4F2024000687F
:1039800000F0070008900898039004286DD8039968
:10399000DFE801F003090F151B0011A8FEF7FEFA7E
:1039A00012980A9064E00EA8FEF774FC0E980A9034
:1039B0005EE00BA8FEF7EAFD0B980A9058E048F28B
:1039C0000000C0F2BB000A9052E040F6E840C4F2AA
:1039D0000240006800F04040099040F60040C4F208
:1039E000024000688007002811D5FFE7099870B9E8
:1039F000FFE740F60040C4F202400068C0F3C10196
:103A000049F20000C0F2D030C8400A902CE040F6E5
:103A10000040C4F202400068800500280BD5FFE793
:103A20000998B0F1804F06D1FFE740F60010C0F2D0
:103A30003D000A9017E040F60040C4F202400068E2
:103A4000800300280BD5FFE70998B0F1004F06D19D
:103A5000FFE747F64000C0F27D100A9002E0002028
:103A60000A90FFE7FFE7FFE702E000200A90FFE788
:103A7000E5E240F6E040C4F20240006800F03800A1
:103A8000089008980290202800F27C800299DFE8D4
:103A900001F0117979797979797917797979797961
:103AA00079791D7979797979797923797979797938
:103AB0007979290011A8FEF771FA12980A9064E04A
:103AC0000EA8FEF7E7FB0E980A905EE00BA8FEF743
:103AD0005DFD0B980A9058E048F20000C0F2BB0070
:103AE0000A9052E040F6E840C4F20240006800F05C
:103AF0004040099040F60040C4F202400068800750
:103B0000002811D5FFE7099870B9FFE740F600409B
:103B1000C4F202400068C0F3C10149F20000C0F2E3
:103B2000D030C8400A902CE040F60040C4F2024079
:103B30000068800500280BD5FFE70998B0F1804F99
:103B400006D1FFE740F60010C0F23D000A9017E0F2
:103B500040F60040C4F202400068800300280BD504
:103B6000FFE70998B0F1004F06D1FFE747F64000A4
:103B7000C0F27D100A9002E000200A90FFE7FFE704
:103B8000FFE702E000200A90FFE758E240F6E0403D
:103B9000C4F20240006800F4E070089008980190B8
:103BA00088B1FFE70198402813D0FFE701988028EB
:103BB00015D0FFE70198C02817D0FFE70198B0F5AE
:103BC000807F18D067E011A8FEF7E8F912980A90F4
:103BD00064E00EA8FEF75EFB0E980A905EE00BA86C
:103BE000FEF7D4FC0B980A9058E048F20000C0F2AF
:103BF000BB000A9052E040F6E840C4F20240006880
:103C000000F04040099040F60040C4F202400068D5
:103C10008007002811D5FFE7099870B9FFE740F643
:103C20000040C4F202400068C0F3C10149F2000044
:103C3000C0F2D030C8400A902CE040F60040C4F2F8
:103C400002400068800500280BD5FFE70998B0F115
:103C5000804F06D1FFE740F60010C0F23D000A9009
:103C600017E040F60040C4F20240006880030028DC
:103C70000BD5FFE70998B0F1004F06D1FFE747F6F3
:103C80004000C0F27D100A9002E000200A90FFE799
:103C9000FFE7FFE702E000200A90FFE7CFE140F6F0
:103CA000E040C4F20240006800F4606008900898A8
:103CB00020B9FFE701F010FC0A9073E040F60040E5
:103CC000C4F202400068000100280BD5FFE7089805
:103CD000B0F5007F06D1FFE70EA8FEF7DBFA0F98DC
:103CE0000A905EE040F60040C4F2024000688000A6
:103CF00000280BD5FFE70898B0F5806F06D1FFE7E5
:103D00000BA8FEF743FC0C980A9049E040F60040EF
:103D1000C4F2024000688007002813D5FFE7089826
:103D2000B0F5C06F0ED1FFE740F60040C4F202408C
:103D30000068C0F3C10149F20000C0F2D030C840B1
:103D40000A902CE040F60040C4F202400068800572
:103D500000280BD5FFE70898B0F5006F06D1FFE704
:103D600040F60010C0F23D000A9017E040F6004017
:103D7000C4F202400068800300280BD5FFE70898D2
:103D8000B0F5206F06D1FFE747F64000C0F27D1086
:103D90000A9002E000200A90FFE7FFE7FFE7FFE755
:103DA000FFE7FFE74BE140F6E440C4F20240006861
:103DB00000F00300089008980090032864D8009948
:103DC000DFE801F002060C1201F058FB0A905EE0F9
:103DD00011A8FEF7E3F812980A9058E00EA8FEF733
:103DE00059FA10980A9052E040F6E840C4F20240B6
:103DF000006800F04040099040F60040C4F20240E4
:103E000000688007002811D5FFE7099870B9FFE71F
:103E100040F60040C4F202400068C0F3C10149F21C
:103E20000000C0F2D030C8400A902CE040F60040BC
:103E3000C4F202400068800500280BD5FFE709980E
:103E4000B0F1804F06D1FFE740F60010C0F23D0010
:103E50000A9017E040F60040C4F202400068800378
:103E600000280BD5FFE70998B0F1004F06D1FFE716
:103E700047F64000C0F27D100A9002E000200A9050
:103E8000FFE7FFE7FFE702E000200A90FFE7D6E048
:103E900040F6E840C4F20240006800F0C00008901C
:103EA00040F6F040C4F2024000688007002807D5C1
:103EB000FFE7089820B9FFE74FF400400A9026E09A
:103EC00040F6F040C4F2024000680001002808D526
:103ED000FFE70898402804D1FFE74FF4FA400A9022
:103EE00014E040F60040C4F202400068800500285B
:103EF00008D5FFE70898802804D1FFE748F21200B0
:103F00000A9002E000200A90FFE7FFE7FFE796E053
:103F100040F6E840C4F20240006800F0300008902B
:103F200040F60040C4F2024000688004002809D531
:103F3000FFE7089830B9FFE746F60040C0F2DC2002
:103F40000A903AE040F60040C4F202400068800166
:103F500000280AD5FFE70898102806D1FFE711A826
:103F6000FEF71CF812980A9026E040F6F040C4F2E2
:103F7000024000688007002808D5FFE7089820283D
:103F800004D1FFE74FF400400A9014E040F6F040FF
:103F9000C4F2024000680001002808D5FFE7089835
:103FA000302804D1FFE74FF4FA400A9002E00020E5
:103FB0000A90FFE7FFE7FFE7FFE740E040F6E44055
:103FC000C4F20240006800F0300008900898102801
:103FD00006D1FFE711A8FDF7E1FF12980A902EE045
:103FE00040F60040C4F202400068800000280AD574
:103FF000FFE70898202806D1FFE70BA8FEF7C6FACE
:104000000C980A9016E040F60040C4F202400068A6
:10401000800400280AD5FFE70898302806D1FFE77A
:1040200046F60040C0F2DC200A9002E000200A9030
:10403000FFE7FFE7FFE702E000200A90FFE7FFE766
:104040000A9816B080BD000080B59EB01D9000207B
:104050008DF86B008DF86A001D98C078C00760B1BC
:10406000FFE740F6E841C4F20241086820F0404012
:104070001D9A926D10430860FFE71D980068C00705
:10408000002837D0FFE71D98C06D1990052817D874
:104090001999DFE801F003040B12131414E01D98C2
:1040A000083004F0E1FD8DF86B000DE01D98303014
:1040B00004F090FE8DF86B0006E005E004E003E0FC
:1040C00001208DF86B00FFE79DF86B0060B9FFE7FA
:1040D00040F6D841C4F20241086820F007001D9A5A
:1040E000D26D1043086004E09DF86B008DF86A0003
:1040F000FFE7FFE71D9800788007002840F14A801D
:10410000FFE71D98006E1890282829D81899DFE835
:1041100001F01527272727272727162727272727AF
:1041200027271D272727272727272427272727272C
:1041300027272527272727272727260014E01D982C
:10414000083004F091FD8DF86B000DE01D983030C3
:1041500004F040FE8DF86B0006E005E004E003E0AB
:1041600001208DF86B00FFE79DF86B0060B9FFE759
:1041700040F6D841C4F20241086820F038001D9A88
:10418000126E1043086004E09DF86B008DF86A0021
:10419000FFE7FFE71D9800784007002847D5FFE7B5
:1041A0001D98406E1790B0B1FFE71798402813D0C4
:1041B000FFE71798802816D0FFE71798C02819D076
:1041C000FFE71798B0F5807F15D0FFE71798B0F597
:1041D000A07F11D011E014E01D98083004F044FDD8
:1041E0008DF86B000DE01D98303004F0F3FD8DF874
:1041F0006B0006E005E004E003E001208DF86B00B1
:10420000FFE79DF86B0060B9FFE740F6D841C4F2C4
:104210000241086820F4E0701D9A526E1043086055
:1042200004E09DF86B008DF86A00FFE7FFE71D983A
:104230000078000700284AD5FFE71D98806E169089
:10424000C8B1FFE71698B0F5007F15D0FFE71698C4
:10425000B0F5806F17D0FFE71698B0F5C06F19D092
:10426000FFE71698B0F5006F15D0FFE71698B0F588
:10427000206F11D011E014E01D98083004F0F4FC18
:104280008DF86B000DE01D98303004F0A3FD8DF823
:104290006B0006E005E004E003E001208DF86B0010
:1042A000FFE79DF86B0060B9FFE740F6D841C4F224
:1042B0000241086820F460601D9A926E1043086005
:1042C00004E09DF86B008DF86A00FFE7FFE71D989A
:1042D0000078C00600284AD5FFE71D98C06E1590EB
:1042E000C8B1FFE71598B0F5805F15D0FFE71598C6
:1042F000B0F5005F17D0FFE71598B0F5405F19D013
:10430000FFE71598B0F5804F15D0FFE71598B0F589
:10431000A04F11D011E014E01D98083004F0A4FC67
:104320008DF86B000DE01D98303004F053FD8DF8D2
:104330006B0006E005E004E003E001208DF86B006F
:10434000FFE79DF86B0060B9FFE740F6D841C4F283
:104350000241086820F4E0401D9AD26E10430860C4
:1043600004E09DF86B008DF86A00FFE7FFE71D98F9
:104370000078800600284AD5FFE71D98006F14904A
:10438000C8B1FFE71498B0F5004F15D0FFE71498B7
:10439000B0F5803F17D0FFE71498B0F5C03F19D0B3
:1043A000FFE71498B0F5003F15D0FFE71498B0F57B
:1043B000203F11D011E014E01D98083004F054FCA7
:1043C0008DF86B000DE01D98303004F003FD8DF882
:1043D0006B0006E005E004E003E001208DF86B00CF
:1043E000FFE79DF86B0060B9FFE740F6D841C4F2E3
:1043F0000241086820F460301D9A126F1043086073
:1044000004E09DF86B008DF86A00FFE7FFE71D9858
:104410004078C00600284AD5FFE71D98406F1390EA
:10442000C8B1FFE71398B0F1807F15D0FFE713986C
:10443000B0F1007F17D0FFE71398B0F1407F19D09B
:10444000FFE71398B0F1806F15D0FFE71398B0F134
:10445000A06F11D011E014E01D98083004F004FCA6
:104460008DF86B000DE01D98303004F0B3FC8DF832
:104470006B0006E005E004E003E001208DF86B002E
:10448000FFE79DF86B0060B9FFE740F6E041C4F23A
:104490000241086820F0E0601D9A526F10430860E6
:1044A00004E09DF86B008DF86A00FFE7FFE71D98B8
:1044B00040788006002838D5FFE71D98806F12905D
:1044C00078B1FFE71298B0F5803F0BD0FFE7129864
:1044D000B0F5003F0DD0FFE71298B0F5403F09D08E
:1044E00009E00CE01D98303004F074FC8DF86B008E
:1044F00005E004E003E001208DF86B00FFE79DF884
:104500006B0060B9FFE740F6E441C4F2024108687D
:1045100020F440301D9A926F1043086004E09DF82B
:104520006B008DF86A00FFE7FFE71D9840784006B2
:10453000002838D5FFE71D98C06F119078B1FFE7CC
:104540001198B0F5802F0BD0FFE71198B0F5002F30
:104550000DD0FFE71198B0F5402F09D009E00CE02D
:104560001D98303004F036FC8DF86B0005E004E057
:1045700003E001208DF86B00FFE79DF86B0060B948
:10458000FFE740F6E441C4F20241086820F440200D
:104590001D9AD26F1043086004E09DF86B008DF8FF
:1045A0006A00FFE7FFE71D984078000600283AD52B
:1045B000FFE71D98D0F88000109078B1FFE71098C1
:1045C000B0F5801F0BD0FFE71098B0F5001F0DD09D
:1045D000FFE71098B0F5401F09D009E00CE01D98E6
:1045E000303004F0F7FB8DF86B0005E004E003E0E9
:1045F00001208DF86B00FFE79DF86B0068B9FFE7BD
:1046000040F6E441C4F20241086820F440101D9ACB
:10461000D2F880201043086004E09DF86B008DF80C
:104620006A00FFE7FFE71D988078C007A0B3FFE7A7
:104630001D98D0F884000F9050B1FFE70F98B0F1AB
:10464000807F06D0FFE70F98B0F1007F08D008E028
:104650000BE01D98303004F0BDFB8DF86B0004E0DA
:1046600003E001208DF86B00FFE79DF86B0068B94F
:10467000FFE740F6E441C4F20241086820F04070D0
:104680001D9AD2F884201043086004E09DF86B0066
:104690008DF86A00FFE7FFE71D984079C006002803
:1046A00034D5FFE71D98D0F888000E9050B1FFE791
:1046B0000E98B0F1806F06D0FFE70E98B0F1006F52
:1046C00008D008E00BE01D98303004F083FB8DF833
:1046D0006B0004E003E001208DF86B00FFE79DF81C
:1046E0006B0068B9FFE740F6E441C4F20241086894
:1046F00020F040601D9AD2F888201043086004E042
:104700009DF86B008DF86A00FFE7FFE71D98407980
:104710000007002811D5FFE7FFE740F61C41C4F26F
:104720000241086820F4004008601D98D0F8C820B5
:10473000086810430860FFE7FFE71D98807880074E
:1047400000284CD5FFE71D98D0F88C000D90C8B11B
:10475000FFE70D98B0F5807F15D0FFE70D98B0F515
:10476000007F17D0FFE70D98B0F5407F19D0FFE725
:104770000D98B0F5806F15D0FFE70D98B0F5A06FDC
:1047800011D011E014E01D98083004F06DFA8DF896
:104790006B000DE01D98303004F01CFB8DF86B00B1
:1047A00006E005E004E003E001208DF86B00FFE780
:1047B0009DF86B0068B9FFE740F6DC41C4F20241A6
:1047C000086820F4E0601D9AD2F88C20104308603D
:1047D00004E09DF86B008DF86A00FFE7FFE71D9885
:1047E0008078400700284CD5FFE71D98D0F890004E
:1047F0000C90C8B1FFE70C98B0F5805F15D0FFE7CB
:104800000C98B0F5005F17D0FFE70C98B0F5405F4B
:1048100019D0FFE70C98B0F5804F15D0FFE70C9842
:10482000B0F5A04F11D011E014E01D98083004F04D
:104830001BFA8DF86B000DE01D98303004F0CAFAB9
:104840008DF86B0006E005E004E003E001208DF840
:104850006B00FFE79DF86B0068B9FFE740F6DC41AD
:10486000C4F20241086820F4E0401D9AD2F890207A
:104870001043086004E09DF86B008DF86A00FFE7C4
:10488000FFE71D9880788006002834D5FFE71D9843
:10489000D0F8A0000B90022809D3FFE70B9802285C
:1048A00006D0FFE70B980338032808D308E00BE095
:1048B0001D98083004F0D8F98DF86B0004E003E08F
:1048C00001208DF86B00FFE79DF86B0068B9FFE7EA
:1048D00040F6E841C4F20241086820F007001D9A42
:1048E000D2F8A0201043086004E09DF86B008DF81A
:1048F0006A00FFE7FFE71D9840798007002827D569
:10490000FFE71D98D0F8A4000A9020B1FFE70A98AD
:10491000082801D001E004E003E001208DF86B00DD
:10492000FFE79DF86B0068B9FFE740F6E841C4F285
:104930000241086820F008001D9AD2F8A420104314
:10494000086004E09DF86B008DF86A00FFE7FFE760
:104950001D98C0788007002840F1B580FFE740F639
:104960002401C4F20241086840F001000860FCF72D
:10497000ADFA1B90FFE740F62400C4F20240006845
:10498000C00760B9FFE7FCF7A1FA1B99401A03289A
:1049900004D3FFE703208DF86B0000E0EBE79DF800
:1049A0006B00002840F08980FFE740F6F040C4F239
:1049B0000240006800F440701C901C98D0B1FFE7E2
:1049C0001C981D99D1F8BC10884213D0FFE740F61F
:1049D000F041C4F20241086820F440701C9008685D
:1049E00040F480300860086820F4803008601C982B
:1049F0000860FFE79DF87000C007E0B1FFE7FCF733
:104A000065FA1B90FFE740F6F040C4F202400068F0
:104A1000800700280ED4FFE7FCF758FA1B99401ACC
:104A200041F28931884204D3FFE703208DF86B00FF
:104A300000E0E8E7FFE79DF86B00C0BBFFE7FFE79A
:104A40001D98D0F8BC0000F44070B0F5407F13D141
:104A5000FFE740F61C41C4F20241086820F47C5094
:104A60001D9AD2F8BC204FF6F043C0F6FF731A40EF
:104A700040EA1210086008E040F61C41C4F202410E
:104A8000086820F47C500860FFE740F6F041C4F26B
:104A90000241086820F4407008601D98D0F8BC20DE
:104AA0006FF31F32086810430860FFE704E09DF8C9
:104AB0006B008DF86A00FFE704E09DF86B008DF84D
:104AC0006A00FFE7FFE71D98C0784007002839D546
:104AD000FFE71D98D0F89800099060B1FFE70998AA
:104AE000102809D0FFE7099820280ED0FFE7099881
:104AF00030280BD00BE00EE040F62841C4F2024112
:104B0000086840F40030086005E004E003E001209C
:104B10008DF86B00FFE79DF86B0068B9FFE740F682
:104B2000E841C4F20241086820F030001D9AD2F832
:104B300098201043086004E09DF86B008DF86A002F
:104B4000FFE7FFE71D9880784006002835D5FFE78E
:104B50001D98D0F89C00089020B1FFE708984028E5
:104B600009D00FE040F62841C4F20241086840F441
:104B7000003008600AE01D98083004F075F88DF8E0
:104B80006B0003E001208DF86B00FFE79DF86B00E0
:104B900068B9FFE740F6E441C4F20241086820F03A
:104BA00040001D9AD2F89C201043086004E09DF854
:104BB0006B008DF86A00FFE7FFE71D98C0780007DB
:104BC000002840D5FFE71D98D0F8AC0007900428D6
:104BD0001ED80799DFE801F0030C131A1B0040F6FA
:104BE0002841C4F20241086840F40030086013E034
:104BF0001D98083004F038F88DF86B000CE01D9813
:104C0000303004F0E7F88DF86B0005E004E003E0D5
:104C100001208DF86B00FFE79DF86B0068B9FFE796
:104C200040F6E041C4F20241086820F007001D9AF6
:104C3000D2F8AC201043086004E09DF86B008DF8BA
:104C40006A00FFE7FFE71D98C078C006002840F122
:104C50004F80FFE71D98D0F8B000069020282CD890
:104C60000699DFE801F0112A2A2A2A2A2A2A1A2A72
:104C70002A2A2A2A2A2A212A2A2A2A2A2A2A282A9F
:104C80002A2A2A2A2A2A290040F62841C4F2024167
:104C9000086840F40030086013E01D98083003F005
:104CA000E3FF8DF86B000CE01D98303004F092F8B3
:104CB0008DF86B0005E004E003E001208DF86B0047
:104CC000FFE79DF86B0068B9FFE740F6E041C4F2EA
:104CD0000241086820F038001D9AD2F8B020104335
:104CE000086004E09DF86B008DF86A00FFE7FFE7BD
:104CF0001D98C078800600284BD5FFE71D98D0F896
:104D0000B400059088B1FFE70598402816D0FFE76A
:104D10000598802819D0FFE70598C0281CD0FFE728
:104D20000598B0F5807F18D018E040F62841C4F20D
:104D30000241086840F40030086013E01D98083014
:104D400003F092FF8DF86B000CE01D98303004F0FA
:104D500041F88DF86B0005E004E003E001208DF8D8
:104D60006B00FFE79DF86B0068B9FFE740F6E04194
:104D7000C4F20241086820F4E0701D9AD2F8B42011
:104D80001043086004E09DF86B008DF86A00FFE7AF
:104D9000FFE71D98C078400600284CD5FFE71D9816
:104DA000D0F8B8000490C8B1FFE70498B0F5007FD0
:104DB00015D0FFE70498B0F5806F17D0FFE704988F
:104DC000B0F5C06F19D0FFE70498B0F5006F15D0AB
:104DD000FFE70498B0F5206F11D011E014E01D98A2
:104DE000083003F041FF8DF86B000DE01D98303066
:104DF00003F0F0FF8DF86B0006E005E004E003E04F
:104E000001208DF86B00FFE79DF86B0068B9FFE7A4
:104E100040F6E041C4F20241086820F460601D9A47
:104E2000D2F8B8201043086004E09DF86B008DF8BC
:104E30006A00FFE7FFE71D9800798007002838D552
:104E4000FFE71D98D0F8A8000390032816D803990F
:104E5000DFE801F002030C1314E040F62841C4F22D
:104E60000241086840F4003008600BE01D980830EB
:104E700003F0FAFE8DF86B0004E003E001208DF8EA
:104E80006B00FFE79DF86B0068B9FFE740F6E4416F
:104E9000C4F20241086820F003001D9AD2F8A8204D
:104EA0001043086004E09DF86B008DF86A00FFE78E
:104EB000FFE71D980079400700283CD5FFE71D98C3
:104EC000D0F89400029050B1FFE70298B0F5807FCF
:104ED00006D0FFE70298B0F5007F0AD010E013E09B
:104EE00040F62841C4F20241086840F400300860EE
:104EF0000AE01D98083003F0B7FE8DF86B0003E060
:104F000001208DF86B00FFE79DF86B0068B9FFE7A3
:104F100040F6E841C4F20241086820F440701D9A4E
:104F2000D2F894201043086004E09DF86B008DF8DF
:104F30006A00FFE7FFE71D980079C00600283BD50F
:104F4000FFE71D98D0F8C4000190102808D0FFE7B3
:104F5000019820280DD0FFE70198302810D010E0EC
:104F600040F62841C4F20241086840F4003008606D
:104F70000BE01D98303003F02DFF8DF86B0004E03E
:104F800003E001208DF86B00FFE79DF86B0068B926
:104F9000FFE740F6E441C4F20241086820F0300027
:104FA0001D9AD2F8C4201043086004E09DF86B00FD
:104FB0008DF86A00FFE7FFE71D98007900070028D9
:104FC0000DD5FFE740F6E841C4F20241086820F041
:104FD000C0001D9AD2F8C02010430860FFE79DF87A
:104FE0006A001EB080BD000080B586B004900391B9
:104FF000049820B9FFE701208DF817003AE20398E2
:1050000042F20001C4F20201096801F00F01884276
:1050100016D9FFE742F20000C4F20200016821F055
:105020000F01039A11430160006800F00F0003991B
:10503000884204D0FFE701208DF817001AE2FFE74D
:1050400004980078C00600281BD5FFE70498406943
:1050500040F62041C4F20241096801F4E041B0EB9E
:10506000112F0DD9FFE740F62041C4F20241086834
:1050700020F4E040049A526940EA02200860FFE709
:10508000FFE704980078000700281BD5FFE7049885
:10509000006940F62041C4F20241096801F4E06170
:1050A000B0EB111F0DD9FFE740F62041C4F20241D9
:1050B000086820F4E060049A126940EA021008606F
:1050C000FFE7FFE7049800784007002819D5FFE7BD
:1050D0000498C06840F62041C4F20241096801F01A
:1050E000700188420CD9FFE740F62041C4F202412A
:1050F000086820F07000049AD26810430860FFE747
:10510000FFE7049800788007002819D5FFE7049886
:10511000806840F62041C4F20241096801F00F01A5
:1051200088420CD9FFE740F62041C4F202410868EA
:1051300020F00F00049A926810430860FFE7FFE731
:1051400004980078C007002800F0D180FFE7049899
:10515000406803280ED1FFE740F60040C4F2024049
:1051600000688001002804D4FFE701208DF81700B3
:1051700080E135E00498406802280ED1FFE740F650
:105180000040C4F2024000688003002804D4FFE716
:1051900001208DF817006DE121E004984068012896
:1051A0000ED1FFE740F60040C4F2024000688005DF
:1051B000002804D4FFE701208DF817005AE10DE024
:1051C00040F60040C4F2024000688007002804D482
:1051D000FFE701208DF817004CE1FFE7FFE7FFE74D
:1051E00040F61C41C4F20241086820F00300049A12
:1051F000526810430860FBF769FE0190049840680C
:1052000003281AD1FFE7FFE740F61C40C4F2024032
:10521000006800F0180018280ED0FFE7FBF756FED4
:105220000199401A41F28931884204D3FFE70320F3
:105230008DF817001EE1E7E758E00498406802285F
:105240001AD1FFE7FFE740F61C40C4F202400068B5
:1052500000F0180010280ED0FFE7FBF737FE019989
:10526000401A41F28931884204D3FFE703208DF8C8
:105270001700FFE0E7E738E00498406801281AD1FA
:10528000FFE7FFE740F61C40C4F20240006800F070
:10529000180008280ED0FFE7FBF718FE0199401A06
:1052A00041F28931884204D3FFE703208DF81700CB
:1052B000E0E0E7E718E0FFE740F61C40C4F20240F8
:1052C000006810F0180F0ED0FFE7FBF7FFFD019903
:1052D000401A41F28931884204D3FFE703208DF858
:1052E0001700C7E0E8E7FFE7FFE7FFE7FFE70498FD
:1052F00000788007002819D5FFE70498806840F6F9
:105300002041C4F20241096801F00F0188420CD229
:10531000FFE740F62041C4F20241086820F00F0088
:10532000049A926810430860FFE7FFE7039842F28F
:105330000001C4F20201096801F00F01884216D28F
:10534000FFE742F20000C4F20200016821F00F0101
:10535000039A11430160006800F00F00039988422E
:1053600004D0FFE701208DF8170083E0FFE70498E1
:1053700000784007002819D5FFE70498C06840F678
:105380002041C4F20241096801F0700188420CD248
:10539000FFE740F62041C4F20241086820F07000A7
:1053A000049AD26810430860FFE7FFE7049800788A
:1053B000000700281BD5FFE70498006940F620414C
:1053C000C4F20241096801F4E061B0EB111F0DD293
:1053D000FFE740F62041C4F20241086820F4E06093
:1053E000049A126940EA02100860FFE7FFE7049898
:1053F0000078C00600281BD5FFE70498406940F6F6
:105400002041C4F20241096801F4E041B0EB112FE0
:105410000DD2FFE740F62041C4F20241086820F4B3
:10542000E040049A526940EA02200860FFE7FFE783
:1054300000F07AF840F62041C4F20241096801F018
:105440000F0241F29421C0F60101895CC84040F28C
:105450001401C2F20001086040F25400C2F20000E0
:105460000068FBF7A1FD8DF80B009DF80B008DF88F
:105470001700FFE79DF8170006B080BD80B500F06B
:1054800053F840F62041C4F20241096801F00F02CE
:1054900041F29421C0F60101895C01F01F0120FA5C
:1054A00001F140F21400C2F200000160006880BD0A
:1054B00080B5FFF7E3FF40F62041C4F202410968DE
:1054C000C1F3021241F2A421C0F60101895C01F08E
:1054D0001F01C84080BD000080B5FFF7CFFF40F638
:1054E0002041C4F202410968C1F3022241F2A42121
:1054F000C0F60101895C01F01F01C84080BD0000B9
:1055000080B5FFF7BBFF40F62041C4F202410968B5
:10551000C1F3023241F2A421C0F60101895C01F01D
:105520001F01C84080BD000089B040F61C40C4F295
:105530000240006800F01800082806D1FFE740F696
:105540000010C0F23D00049048E140F61C40C4F257
:105550000240006810F0180F21D1FFE740F600402C
:10556000C4F20240006800F020010020B0EB511F9F
:105570000ED0FFE740F60040C4F202400068C0F3DE
:10558000C10149F20000C0F2D030C840049005E0EB
:1055900049F20000C0F2D0300490FFE71DE140F670
:1055A0001C40C4F20240006800F01800102806D128
:1055B000FFE747F64000C0F27D1004900CE140F692
:1055C0001C40C4F20240006800F01800182840F0A7
:1055D000FC80FFE740F62840C4F20240016801F079
:1055E000030108910168C1F3052106910068C0F329
:1055F00000100590059840F63841C4F20241096850
:1056000089B2C90800FB01F000EE100AB8EE400AAA
:105610008DED020A0698002800F0D380FFE7089875
:105620000090012809D0FFE70098022800F08D8043
:10563000FFE70098032864D088E040F60040C4F2F9
:105640000240006800F020010020B0EB511F33D071
:10565000FFE740F60040C4F202400068C0F3C10119
:1056600049F20000C0F2D030C84003909DED030A1B
:10567000B8EE400A9DED061AB8EE411A80EE010A16
:1056800040F63440C4F2024000686FF35F2001EE40
:10569000100AB8EE411A9DED022A9FED533A82EEB0
:1056A000032A31EE021AB7EE002A31EE021A20EE7A
:1056B000010A8DED010A23E09DED060AB8EE401ABD
:1056C0009FED4A0A80EE010A40F63440C4F20240DF
:1056D00000686FF35F2001EE100AB8EE411A9DEDED
:1056E000022A9FED413A82EE032A31EE021AB7EE0A
:1056F000002A31EE021A20EE010A8DED010AFFE7C1
:1057000048E09DED060AB8EE401A9FED360A80EE9D
:10571000010A40F63440C4F2024000686FF35F2093
:1057200001EE100AB8EE411A9DED022A9FED2E3AC5
:1057300082EE032A31EE021AB7EE002A31EE021A87
:1057400020EE010A8DED010A24E0FFE79DED060A37
:10575000B8EE401A9FED260A80EE010A40F634406A
:10576000C4F2024000686FF35F2001EE100AB8EE49
:10577000411A9DED022A9FED1C3A82EE032A31EE7A
:10578000021AB7EE002A31EE021A20EE010A8DED60
:10579000010AFFE740F63440C4F20240006881B2DB
:1057A000012000EB512007909DED010A9DED071AA5
:1057B000B8EE411A80EE010ABCEEC00A8DED040A73
:1057C00002E000200490FFE705E049F20000C0F28B
:1057D000D0300490FFE7FFE7FFE7FFE7049809B048
:1057E000704700BF20BCBE4B000000460024744C34
:1057F0000024744A80B588B00690069828B9FFE75F
:1058000001208DF81F0000F0EFBC40F61C40C4F2F0
:105810000240006800F01800049040F62840C4F2EE
:105820000240006800F00300039006980078C0066C
:10583000002840F18080FFE70498082808D0FFE79F
:10584000049818281DD1FFE70398022819D1FFE713
:105850000698C06928B9FFE701208DF81F0000F005
:10586000C3BCFFE740F61841C4F20241086820F4C7
:105870007C10069A126A40EA02400860FFE7FFE7E0
:1058800058E00698C06988B3FFE740F60041C4F2CB
:105890000241086840F480700860FBF717FB059030
:1058A000FFE740F60040C4F202400068800500288F
:1058B0000DD4FFE7FBF70AFB0599401A032805D32F
:1058C000FFE703208DF81F0000F08EBCE9E7FFE73B
:1058D00040F61841C4F20241086820F47C10069A90
:1058E000126A40EA02400860FFE722E040F6004109
:1058F000C4F20241086820F480700860FBF7E6FA01
:105900000590FFE740F60040C4F2024000688005C1
:1059100000280DD5FFE7FBF7D9FA0599401A0328AF
:1059200005D3FFE703208DF81F0000F05DBCE9E719
:10593000FFE7FFE7FFE706980078C007002800F0C0
:10594000B980FFE70498102808D0FFE704981828CA
:105950000ED1FFE7039803280AD1FFE706984068B5
:1059600028B9FFE701208DF81F0000F03DBCA0E042
:10597000FFE706984068B0F5803F09D1FFE740F6A1
:105980000041C4F20241086840F48030086056E0EB
:105990000698406888B9FFE740F60041C4F202412A
:1059A000086820F480300860086820F480100860DF
:1059B000086820F48020086040E006984068B0F550
:1059C000A02F11D1FFE740F60041C4F20241086860
:1059D00040F480200860086820F48010086008689F
:1059E00040F48030086028E006984068B0F5A81FB1
:1059F00011D1FFE740F60041C4F20241086840F4CB
:105A000080200860086840F480100860086840F44E
:105A10008030086010E040F60041C4F2024108689E
:105A200020F480300860086820F48020086008684E
:105A300020F480100860FFE7FFE7FFE7FFE7FFE7DC
:105A400006984068D0B1FFE7FBF740FA0590FFE702
:105A500040F60040C4F202400068800300280CD4E5
:105A6000FFE7FBF733FA0599401A652804D3FFE7EF
:105A700003208DF81F00B7E3EAE719E0FBF726FAE9
:105A80000590FFE740F60040C4F202400068800342
:105A900000280CD5FFE7FBF719FA0599401A65288D
:105AA00004D3FFE703208DF81F009DE3EAE7FFE73B
:105AB000FFE7FFE7069800788007002840F1C380E1
:105AC000FFE7049840B1FFE7049818285ED1FFE78C
:105AD000039801285AD1FFE70698C06820B9FFE76C
